{"contracts/NigerianStockToken.sol":{"NigerianStockToken":{"abi":[{"inputs":[{"internalType":"string","name":"_name","type":"string"},{"internalType":"string","name":"_symbol","type":"string"},{"internalType":"string","name":"_stockSymbol","type":"string"},{"internalType":"string","name":"_companyName","type":"string"},{"internalType":"uint256","name":"_maxSupply","type":"uint256"},{"internalType":"uint256","name":"_initialSupply","type":"uint256"},{"internalType":"address","name":"_admin","type":"address"}],"stateMutability":"nonpayable","type":"constructor"},{"inputs":[],"name":"AccessControlBadConfirmation","type":"error"},{"inputs":[{"internalType":"address","name":"account","type":"address"},{"internalType":"bytes32","name":"neededRole","type":"bytes32"}],"name":"AccessControlUnauthorizedAccount","type":"error"},{"inputs":[],"name":"ECDSAInvalidSignature","type":"error"},{"inputs":[{"internalType":"uint256","name":"length","type":"uint256"}],"name":"ECDSAInvalidSignatureLength","type":"error"},{"inputs":[{"internalType":"bytes32","name":"s","type":"bytes32"}],"name":"ECDSAInvalidSignatureS","type":"error"},{"inputs":[{"internalType":"address","name":"spender","type":"address"},{"internalType":"uint256","name":"allowance","type":"uint256"},{"internalType":"uint256","name":"needed","type":"uint256"}],"name":"ERC20InsufficientAllowance","type":"error"},{"inputs":[{"internalType":"address","name":"sender","type":"address"},{"internalType":"uint256","name":"balance","type":"uint256"},{"internalType":"uint256","name":"needed","type":"uint256"}],"name":"ERC20InsufficientBalance","type":"error"},{"inputs":[{"internalType":"address","name":"approver","type":"address"}],"name":"ERC20InvalidApprover","type":"error"},{"inputs":[{"internalType":"address","name":"receiver","type":"address"}],"name":"ERC20InvalidReceiver","type":"error"},{"inputs":[{"internalType":"address","name":"sender","type":"address"}],"name":"ERC20InvalidSender","type":"error"},{"inputs":[{"internalType":"address","name":"spender","type":"address"}],"name":"ERC20InvalidSpender","type":"error"},{"inputs":[{"internalType":"uint256","name":"deadline","type":"uint256"}],"name":"ERC2612ExpiredSignature","type":"error"},{"inputs":[{"internalType":"address","name":"signer","type":"address"},{"internalType":"address","name":"owner","type":"address"}],"name":"ERC2612InvalidSigner","type":"error"},{"inputs":[],"name":"EnforcedPause","type":"error"},{"inputs":[],"name":"ExpectedPause","type":"error"},{"inputs":[{"internalType":"address","name":"account","type":"address"},{"internalType":"uint256","name":"currentNonce","type":"uint256"}],"name":"InvalidAccountNonce","type":"error"},{"inputs":[],"name":"InvalidShortString","type":"error"},{"inputs":[],"name":"ReentrancyGuardReentrantCall","type":"error"},{"inputs":[{"internalType":"string","name":"str","type":"string"}],"name":"StringTooLong","type":"error"},{"anonymous":false,"inputs":[{"indexed":true,"internalType":"address","name":"owner","type":"address"},{"indexed":true,"internalType":"address","name":"spender","type":"address"},{"indexed":false,"internalType":"uint256","name":"value","type":"uint256"}],"name":"Approval","type":"event"},{"anonymous":false,"inputs":[{"indexed":true,"internalType":"address","name":"account","type":"address"},{"indexed":false,"internalType":"bool","name":"status","type":"bool"}],"name":"Blacklisted","type":"event"},{"anonymous":false,"inputs":[{"indexed":true,"internalType":"address","name":"account","type":"address"},{"indexed":false,"internalType":"uint256","name":"limit","type":"uint256"}],"name":"DailyLimitSet","type":"event"},{"anonymous":false,"inputs":[],"name":"EIP712DomainChanged","type":"event"},{"anonymous":false,"inputs":[{"indexed":false,"internalType":"uint256","name":"newAmount","type":"uint256"}],"name":"MaxTransactionAmountUpdated","type":"event"},{"anonymous":false,"inputs":[{"indexed":false,"internalType":"address","name":"account","type":"address"}],"name":"Paused","type":"event"},{"anonymous":false,"inputs":[{"indexed":true,"internalType":"bytes32","name":"role","type":"bytes32"},{"indexed":true,"internalType":"bytes32","name":"previousAdminRole","type":"bytes32"},{"indexed":true,"internalType":"bytes32","name":"newAdminRole","type":"bytes32"}],"name":"RoleAdminChanged","type":"event"},{"anonymous":false,"inputs":[{"indexed":true,"internalType":"bytes32","name":"role","type":"bytes32"},{"indexed":true,"internalType":"address","name":"account","type":"address"},{"indexed":true,"internalType":"address","name":"sender","type":"address"}],"name":"RoleGranted","type":"event"},{"anonymous":false,"inputs":[{"indexed":true,"internalType":"bytes32","name":"role","type":"bytes32"},{"indexed":true,"internalType":"address","name":"account","type":"address"},{"indexed":true,"internalType":"address","name":"sender","type":"address"}],"name":"RoleRevoked","type":"event"},{"anonymous":false,"inputs":[{"indexed":true,"internalType":"address","name":"from","type":"address"},{"indexed":false,"internalType":"uint256","name":"amount","type":"uint256"}],"name":"TokensBurned","type":"event"},{"anonymous":false,"inputs":[{"indexed":true,"internalType":"address","name":"to","type":"address"},{"indexed":false,"internalType":"uint256","name":"amount","type":"uint256"}],"name":"TokensMinted","type":"event"},{"anonymous":false,"inputs":[{"indexed":true,"internalType":"address","name":"from","type":"address"},{"indexed":true,"internalType":"address","name":"to","type":"address"},{"indexed":false,"internalType":"uint256","name":"value","type":"uint256"}],"name":"Transfer","type":"event"},{"anonymous":false,"inputs":[{"indexed":false,"internalType":"address","name":"account","type":"address"}],"name":"Unpaused","type":"event"},{"inputs":[],"name":"BURNER_ROLE","outputs":[{"internalType":"bytes32","name":"","type":"bytes32"}],"stateMutability":"view","type":"function"},{"inputs":[],"name":"COMPLIANCE_ROLE","outputs":[{"internalType":"bytes32","name":"","type":"bytes32"}],"stateMutability":"view","type":"function"},{"inputs":[],"name":"DEFAULT_ADMIN_ROLE","outputs":[{"internalType":"bytes32","name":"","type":"bytes32"}],"stateMutability":"view","type":"function"},{"inputs":[],"name":"DOMAIN_SEPARATOR","outputs":[{"internalType":"bytes32","name":"","type":"bytes32"}],"stateMutability":"view","type":"function"},{"inputs":[],"name":"MINTER_ROLE","outputs":[{"internalType":"bytes32","name":"","type":"bytes32"}],"stateMutability":"view","type":"function"},{"inputs":[],"name":"PAUSER_ROLE","outputs":[{"internalType":"bytes32","name":"","type":"bytes32"}],"stateMutability":"view","type":"function"},{"inputs":[{"internalType":"address","name":"owner","type":"address"},{"internalType":"address","name":"spender","type":"address"}],"name":"allowance","outputs":[{"internalType":"uint256","name":"","type":"uint256"}],"stateMutability":"view","type":"function"},{"inputs":[{"internalType":"address","name":"spender","type":"address"},{"internalType":"uint256","name":"value","type":"uint256"}],"name":"approve","outputs":[{"internalType":"bool","name":"","type":"bool"}],"stateMutability":"nonpayable","type":"function"},{"inputs":[{"internalType":"address","name":"account","type":"address"}],"name":"balanceOf","outputs":[{"internalType":"uint256","name":"","type":"uint256"}],"stateMutability":"view","type":"function"},{"inputs":[{"internalType":"address","name":"","type":"address"}],"name":"blacklisted","outputs":[{"internalType":"bool","name":"","type":"bool"}],"stateMutability":"view","type":"function"},{"inputs":[{"internalType":"address","name":"from","type":"address"},{"internalType":"uint256","name":"amount","type":"uint256"}],"name":"burn","outputs":[],"stateMutability":"nonpayable","type":"function"},{"inputs":[],"name":"companyName","outputs":[{"internalType":"string","name":"","type":"string"}],"stateMutability":"view","type":"function"},{"inputs":[{"internalType":"address","name":"","type":"address"},{"internalType":"uint256","name":"","type":"uint256"}],"name":"dailyTransferAmounts","outputs":[{"internalType":"uint256","name":"","type":"uint256"}],"stateMutability":"view","type":"function"},{"inputs":[{"internalType":"address","name":"","type":"address"}],"name":"dailyTransferLimits","outputs":[{"internalType":"uint256","name":"","type":"uint256"}],"stateMutability":"view","type":"function"},{"inputs":[],"name":"decimals","outputs":[{"internalType":"uint8","name":"","type":"uint8"}],"stateMutability":"view","type":"function"},{"inputs":[],"name":"defaultDailyLimit","outputs":[{"internalType":"uint256","name":"","type":"uint256"}],"stateMutability":"view","type":"function"},{"inputs":[],"name":"eip712Domain","outputs":[{"internalType":"bytes1","name":"fields","type":"bytes1"},{"internalType":"string","name":"name","type":"string"},{"internalType":"string","name":"version","type":"string"},{"internalType":"uint256","name":"chainId","type":"uint256"},{"internalType":"address","name":"verifyingContract","type":"address"},{"internalType":"bytes32","name":"salt","type":"bytes32"},{"internalType":"uint256[]","name":"extensions","type":"uint256[]"}],"stateMutability":"view","type":"function"},{"inputs":[],"name":"getCurrentDay","outputs":[{"internalType":"uint256","name":"","type":"uint256"}],"stateMutability":"view","type":"function"},{"inputs":[{"internalType":"bytes32","name":"role","type":"bytes32"}],"name":"getRoleAdmin","outputs":[{"internalType":"bytes32","name":"","type":"bytes32"}],"stateMutability":"view","type":"function"},{"inputs":[],"name":"getTokenInfo","outputs":[{"internalType":"string","name":"_name","type":"string"},{"internalType":"string","name":"_symbol","type":"string"},{"internalType":"string","name":"_stockSymbol","type":"string"},{"internalType":"string","name":"_companyName","type":"string"},{"internalType":"uint256","name":"_totalSupply","type":"uint256"},{"internalType":"uint256","name":"_maxSupply","type":"uint256"},{"internalType":"uint8","name":"_decimals","type":"uint8"}],"stateMutability":"view","type":"function"},{"inputs":[{"internalType":"bytes32","name":"role","type":"bytes32"},{"internalType":"address","name":"account","type":"address"}],"name":"grantRole","outputs":[],"stateMutability":"nonpayable","type":"function"},{"inputs":[{"internalType":"bytes32","name":"role","type":"bytes32"},{"internalType":"address","name":"account","type":"address"}],"name":"hasRole","outputs":[{"internalType":"bool","name":"","type":"bool"}],"stateMutability":"view","type":"function"},{"inputs":[],"name":"maxSupply","outputs":[{"internalType":"uint256","name":"","type":"uint256"}],"stateMutability":"view","type":"function"},{"inputs":[],"name":"maxTransactionAmount","outputs":[{"internalType":"uint256","name":"","type":"uint256"}],"stateMutability":"view","type":"function"},{"inputs":[{"internalType":"address","name":"to","type":"address"},{"internalType":"uint256","name":"amount","type":"uint256"}],"name":"mint","outputs":[],"stateMutability":"nonpayable","type":"function"},{"inputs":[],"name":"name","outputs":[{"internalType":"string","name":"","type":"string"}],"stateMutability":"view","type":"function"},{"inputs":[{"internalType":"address","name":"owner","type":"address"}],"name":"nonces","outputs":[{"internalType":"uint256","name":"","type":"uint256"}],"stateMutability":"view","type":"function"},{"inputs":[],"name":"pause","outputs":[],"stateMutability":"nonpayable","type":"function"},{"inputs":[],"name":"paused","outputs":[{"internalType":"bool","name":"","type":"bool"}],"stateMutability":"view","type":"function"},{"inputs":[{"internalType":"address","name":"owner","type":"address"},{"internalType":"address","name":"spender","type":"address"},{"internalType":"uint256","name":"value","type":"uint256"},{"internalType":"uint256","name":"deadline","type":"uint256"},{"internalType":"uint8","name":"v","type":"uint8"},{"internalType":"bytes32","name":"r","type":"bytes32"},{"internalType":"bytes32","name":"s","type":"bytes32"}],"name":"permit","outputs":[],"stateMutability":"nonpayable","type":"function"},{"inputs":[{"internalType":"bytes32","name":"role","type":"bytes32"},{"internalType":"address","name":"callerConfirmation","type":"address"}],"name":"renounceRole","outputs":[],"stateMutability":"nonpayable","type":"function"},{"inputs":[{"internalType":"bytes32","name":"role","type":"bytes32"},{"internalType":"address","name":"account","type":"address"}],"name":"revokeRole","outputs":[],"stateMutability":"nonpayable","type":"function"},{"inputs":[{"internalType":"address","name":"account","type":"address"},{"internalType":"bool","name":"status","type":"bool"}],"name":"setBlacklisted","outputs":[],"stateMutability":"nonpayable","type":"function"},{"inputs":[{"internalType":"address","name":"account","type":"address"},{"internalType":"uint256","name":"limit","type":"uint256"}],"name":"setDailyLimit","outputs":[],"stateMutability":"nonpayable","type":"function"},{"inputs":[{"internalType":"uint256","name":"amount","type":"uint256"}],"name":"setMaxTransactionAmount","outputs":[],"stateMutability":"nonpayable","type":"function"},{"inputs":[],"name":"stockSymbol","outputs":[{"internalType":"string","name":"","type":"string"}],"stateMutability":"view","type":"function"},{"inputs":[{"internalType":"bytes4","name":"interfaceId","type":"bytes4"}],"name":"supportsInterface","outputs":[{"internalType":"bool","name":"","type":"bool"}],"stateMutability":"view","type":"function"},{"inputs":[],"name":"symbol","outputs":[{"internalType":"string","name":"","type":"string"}],"stateMutability":"view","type":"function"},{"inputs":[],"name":"totalSupply","outputs":[{"internalType":"uint256","name":"","type":"uint256"}],"stateMutability":"view","type":"function"},{"inputs":[{"internalType":"address","name":"to","type":"address"},{"internalType":"uint256","name":"value","type":"uint256"}],"name":"transfer","outputs":[{"internalType":"bool","name":"","type":"bool"}],"stateMutability":"nonpayable","type":"function"},{"inputs":[{"internalType":"address","name":"from","type":"address"},{"internalType":"address","name":"to","type":"address"},{"internalType":"uint256","name":"value","type":"uint256"}],"name":"transferFrom","outputs":[{"internalType":"bool","name":"","type":"bool"}],"stateMutability":"nonpayable","type":"function"},{"inputs":[],"name":"unpause","outputs":[],"stateMutability":"nonpayable","type":"function"}],"evm":{"bytecode":{"linkReferences":{},"object":"610160806040523462000a2c5762002f40803803809162000021828562000a31565b833981019060e08183031262000a2c5780516001600160401b03811162000a2c57826200005091830162000a7a565b60208201516001600160401b03811162000a2c57836200007291840162000a7a565b60408301516001600160401b03811162000a2c57846200009491850162000a7a565b606084015190946001600160401b03821162000a2c57620000b791850162000a7a565b9360808401519160c060a08601519501519360018060a01b038516850362000a2c5760408051929083016001600160401b03811184821017620005fb5760405260018352603160f81b602084015281516001600160401b038111620005fb57600354600181811c9116801562000a21575b6020821014620005da57601f8111620009bb575b50806020601f8211600114620009315760009162000925575b508160011b916000199060031b1c1916176003555b8051906001600160401b038211620005fb5760045490600182811c921680156200091a575b6020831014620005da5781601f849311620008a5575b50602090601f831160011462000816576000926200080a575b50508160011b916000199060031b1c1916176004555b620001df8162000dd3565b61012052620001ee8262000f78565b6101405260208151910120908160e0526020815191012080610100524660a0526040519060208201927f8b73c3c69bb8fe3d512ecc4cf759cc79239f7b179b0ffacaa9a75d522b39400f8452604083015260608201524660808201523060a082015260a0815260c081019181831060018060401b03841117620005fb576040839052815190206080523060c0526001600a5569d3c21bcecceda100000060115569152d02c7e14af68000006012556001600160a01b03851615620007c65750508115620007775781841162000728578051906001600160401b038211620005fb57600b5490600182811c921680156200071d575b6020831014620005da5781601f849311620006a8575b50602090601f83116001146200061d5760009262000611575b50508160011b916000199060031b1c191617600b555b83516001600160401b038111620005fb57600c54600181811c91168015620005f0575b6020821014620005da57601f811162000570575b50602094601f82116001146200050357948192939495600092620004f7575b50508160011b916000199060031b1c191617600c555b600d55620003a18162000ad5565b50620003ad8162000b56565b50620003b98162000bf9565b50620003c58162000c97565b50620003d18162000d35565b50816200042b575b604051611e509081620010d082396080518161186c015260a05181611938015260c05181611836015260e051816118bb015261010051816118e1015261012051816109af015261014051816109d90152f35b60ff60085416620004e557600254828101809111620004cf576002556001600160a01b038116600081815260208181526040808320805487019055518581527f3f2c9d57c068687834f0de942a9babb9e5acab57d516d3480a3c16ee165a42739491939192907fddf252ad1be2c89b69c2b068fc378daa952ba7f163c4a11628f55a4df523b3ef908590a36040519384526001600160a01b031692a23880620003d9565b634e487b7160e01b600052601160045260246000fd5b60405163d93c066560e01b8152600490fd5b0151905038806200037d565b601f19821695600c60005260206000209160005b88811062000557575083600195969798106200053d575b505050811b01600c5562000393565b015160001960f88460031b161c191690553880806200052e565b9192602060018192868501518155019401920162000517565b600c6000527fdf6966c971051c3d54ec59162606531493a51404a002842f56009d7e5cf4a8c7601f830160051c81019160208410620005cf575b601f0160051c01905b818110620005c257506200035e565b60008155600101620005b3565b9091508190620005aa565b634e487b7160e01b600052602260045260246000fd5b90607f16906200034a565b634e487b7160e01b600052604160045260246000fd5b01519050388062000311565b600b60009081527f0175b7a638427703f0dbe7bb9bbf987a2551717b34e79f33b5b1008d1fa01db99350601f198516905b8181106200068f575090846001959493921062000675575b505050811b01600b5562000327565b015160001960f88460031b161c1916905538808062000666565b929360206001819287860151815501950193016200064e565b600b6000529091507f0175b7a638427703f0dbe7bb9bbf987a2551717b34e79f33b5b1008d1fa01db9601f840160051c8101916020851062000712575b90601f859493920160051c01905b818110620007025750620002f8565b60008155849350600101620006f3565b9091508190620006e5565b91607f1691620002e2565b60405162461bcd60e51b815260206004820152602160248201527f496e697469616c20737570706c792065786365656473206d617820737570706c6044820152607960f81b6064820152608490fd5b60405162461bcd60e51b815260206004820152602160248201527f4d617820737570706c79206d7573742062652067726561746572207468616e206044820152600360fc1b6064820152608490fd5b62461bcd60e51b8252602060c4820152601c60e48201527f41646d696e2063616e6e6f74206265207a65726f20616464726573730000000061010490910152606490fd5b015190503880620001be565b6004600090815293507f8a35acfbc15ff81a39ae7d344fd709f28e8600b4aa8c65c6b64bfe7fe36bd19b91905b601f198416851062000889576001945083601f198116106200086f575b505050811b01600455620001d4565b015160001960f88460031b161c1916905538808062000860565b8181015183556020948501946001909301929091019062000843565b60046000529091507f8a35acfbc15ff81a39ae7d344fd709f28e8600b4aa8c65c6b64bfe7fe36bd19b601f840160051c810191602085106200090f575b90601f859493920160051c01905b818110620008ff5750620001a5565b60008155849350600101620008f0565b9091508190620008e2565b91607f16916200018f565b90508301513862000155565b6003600090815292507fc2575a0e9e593c00f959f8c92f12db2869c3395a3b0502d05e2516446f71f85b905b601f1983168410620009a2576001935082601f1981161062000988575b5050811b016003556200016a565b85015160001960f88460031b161c1916905538806200097a565b858101518255602093840193600190920191016200095d565b60036000527fc2575a0e9e593c00f959f8c92f12db2869c3395a3b0502d05e2516446f71f85b601f830160051c81016020841062000a19575b601f830160051c8201811062000a0c5750506200013c565b60008155600101620009f4565b5080620009f4565b90607f169062000128565b600080fd5b601f909101601f19168101906001600160401b03821190821017620005fb57604052565b60005b83811062000a695750506000910152565b818101518382015260200162000a58565b81601f8201121562000a2c5780516001600160401b038111620005fb576040519262000ab1601f8301601f19166020018562000a31565b8184526020828401011162000a2c5762000ad2916020808501910162000a55565b90565b6001600160a01b031660008181527fec8156718a8372b1db44bb411437d0870f3e3790d4a08526d024ce1b0b668f6b602052604081205490919060ff1662000b525781805260096020526040822081835260205260408220600160ff19825416179055339160008051602062002f208339815191528180a4600190565b5090565b6001600160a01b031660008181527fd5d09b8f3165a736d25b1a14611612ac91830c1b82012b1c33b2dac7c90a064960205260408120549091907f9f2df0fed2c77648de5860a4cc508cd0818c85b8b8a1ab4ceeef8d981c8956a69060ff1662000bf45780835260096020526040832082845260205260408320600160ff1982541617905560008051602062002f20833981519152339380a4600190565b505090565b6001600160a01b031660008181527fafc27dadd95cc92cc3511384503afbc19841fe8e9d61fefc7f2fb1e6a3bd40c260205260408120549091907f3c11d16cbaffd01df69ce1c404f6340ee057498f5f00246190ea54220576a8489060ff1662000bf45780835260096020526040832082845260205260408320600160ff1982541617905560008051602062002f20833981519152339380a4600190565b6001600160a01b031660008181527f84574a31e2f767388bfa57bc81ff2590df95d3022c04c363cca3e37ee960863160205260408120549091907f65d7a28e3265b37a6474929f336521b332c1681b933f6cb9f3376673440d862a9060ff1662000bf45780835260096020526040832082845260205260408320600160ff1982541617905560008051602062002f20833981519152339380a4600190565b6001600160a01b031660008181527f4fcb20797bc22b6bdf05ed948026fdc1b31b30d107ac0811a08b18c975bbd64b60205260408120549091907f442a94f1a1fac79af32856af2a64f63648cfa2ef3b98610a5bb7cbec4cee69859060ff1662000bf45780835260096020526040832082845260205260408320600160ff1982541617905560008051602062002f20833981519152339380a4600190565b8051602091908281101562000e53575090601f82511162000e11578082519201519080831062000e0257501790565b82600019910360031b1b161790565b60449062000e459260405193849263305a27a960e01b84528060048501528251928391826024870152868601910162000a55565b601f01601f19168101030190fd5b6001600160401b038111620005fb576005928354926001938481811c9116801562000f6d575b83821014620005da57601f811162000f36575b5081601f841160011462000ecc575092829391839260009462000ec0575b50501b916000199060031b1c191617905560ff90565b01519250388062000eaa565b919083601f1981168760005284600020946000905b8883831062000f1b575050501062000f01575b505050811b01905560ff90565b015160001960f88460031b161c1916905538808062000ef4565b85870151885590960195948501948793509081019062000ee1565b8560005284601f846000209201871c820191601f8601881c015b82811062000f6057505062000e8c565b6000815501859062000f50565b90607f169062000e79565b80516020908181101562000fa55750601f82511162000e11578082519201519080831062000e0257501790565b906001600160401b038211620005fb57600654926001938481811c91168015620010c4575b83821014620005da57601f81116200108a575b5081601f84116001146200101e575092829391839260009462001012575b50501b916000199060031b1c19161760065560ff90565b01519250388062000ffb565b919083601f198116600660005284600020946000905b888383106200106f575050501062001055575b505050811b0160065560ff90565b015160001960f88460031b161c1916905538808062001047565b85870151885590960195948501948793509081019062001034565b600660005284601f84600020920160051c820191601f860160051c015b828110620010b757505062000fdd565b60008155018590620010a7565b90607f169062000fca56fe608060408181526004918236101561001657600080fd5b60009260e08435811c92836301ffc9a71461118a57508263062d3bd71461114e57826306fdde0314611128578263095ea7b3146110fd57826318160ddd146110dd5782631e293c101461108e57826323b872dd14610f9a578263248a9ca314610f6e5782632803212f14610f05578263282c51f314610ec95782632f2ff15d14610e9f578263313ce56714610e825782633644e51514610e5d57826336568abe14610e165782633e6968b614610df55782633f4ba83a14610d8a57826340c10f1914610be05782635c975abb14610bbb57826370a0823114610b835782637d89d05c14610b4a5782637ecebe0014610b115782638456cb5914610ab557826384b0196e1461099757826391d148541461094f57826395d89b41146109295782639dc29fac14610740578263a217fddf14610724578263a9059cbb146106f2578263abb1dc4414610624578263c76b088814610604578263c87cbe56146105de578263c8c8ebe4146105be578263d01dd6d21461053b578263d505accf146103d557508163d53913931461039a578163d547741f1461035657508063d5abeb0114610338578063dbac26e9146102fb578063dd62ed3e146102b3578063e63ab1e914610279578063f5ec2eed146102385763fdb98082146101f557600080fd5b3461023457806003193601126102345760209181906001600160a01b0361021a61121e565b168152601084528181206024358252845220549051908152f35b5080fd5b50346102345781600319360112610234578051610275916102638261025c81611459565b0383611519565b519182916020835260208301906111de565b0390f35b5034610234578160031936011261023457602090517f65d7a28e3265b37a6474929f336521b332c1681b933f6cb9f3376673440d862a8152f35b5034610234578060031936011261023457806020926102d061121e565b6102d8611239565b6001600160a01b0391821683526001865283832091168252845220549051908152f35b50346102345760203660031901126102345760209160ff9082906001600160a01b0361032561121e565b168152600e855220541690519015158152f35b5034610234578160031936011261023457602090600d549051908152f35b91905034610396578060031936011261039657610392913561038d600161037b611239565b93838752600960205286200154611634565b61195e565b5080f35b8280fd5b505034610234578160031936011261023457602090517f9f2df0fed2c77648de5860a4cc508cd0818c85b8b8a1ab4ceeef8d981c8956a68152f35b90849250346103965781600319360112610396576103f161121e565b6103f9611239565b916044359360643560843560ff8116810361053757814211610520578860018060a01b039283871694858b526007602052828b20918254926001840190558351928760208501957f6e71edae12b1b97f4d1f60370fef10105fa2faae0126114a169c64845d6126c98752850152868b1660608501528b608085015260a084015260c083015260c08252810181811067ffffffffffffffff82111761050d578b525190206104db916104d2916104ac611833565b908c519161190160f01b83526002830152602282015260c43591604260a4359220611c6d565b90929192611cfd565b168181036104f257866104ef8787876119f8565b80f35b87516325c0072360e11b815292830152602482015260449150fd5b634e487b7160e01b8b526041875260248bfd5b885163313c898160e11b8152808501839052602490fd5b8780fd5b5050503461023457806003193601126102345761055661121e565b602435908115158092036105ba577fcf3473b85df1594d47b6958f29a32bea0abff9dd68296f7bf33443646793cfd89160209161059161155e565b6001600160a01b0316808652600e8352848620805460ff191660ff84161790559351908152a280f35b8380fd5b505050346102345781600319360112610234576020906012549051908152f35b505050346102345781600319360112610234578051610275916102638261025c816113cb565b505050346102345781600319360112610234576020906011549051908152f35b839085346106ef57806003193601126106ef575081519161064f8361064881611289565b0384611519565b80519061065f8261025c8161133d565b6106d9600254926106cb600d549380516106838161067c816113cb565b0382611519565b6106be82519461069d8661069681611459565b0387611519565b6106b084519b8b8d9c8d528c01906111de565b908a820360208c01526111de565b91888303908901526111de565b9085820360608701526111de565b91608084015260a0830152601260c08301520390f35b80fd5b5050503461023457806003193601126102345760209061071d61071361121e565b602435903361165a565b5160018152f35b5050503461023457816003193601126102345751908152602090f35b5090503461039657816003193601126103965761075b61121e565b91602435907f3c11d16cbaffd01df69ce1c404f6340ee057498f5f00246190ea54220576a8489283865260209360098552828720338852855260ff83882054161561090e57506107a96119d5565b6001600160a01b0385169485156108cc5785875286855283838820541061088a576107d2611a8b565b858752868552828720549184831061085657505090827ffd38818f5291bf0bb3a2a48aadc06ba8757865d1dabd804585338aab3009dcb69493928688528785520381872055816002540360025585857fddf252ad1be2c89b69c2b068fc378daa952ba7f163c4a11628f55a4df523b3ef858451868152a351908152a26001600a5580f35b835163391434e360e21b81526001600160a01b03909216908201908152602081018390526040810185905281906060010390fd5b5083606492519162461bcd60e51b8352820152601c60248201527f496e73756666696369656e742062616c616e636520746f206275726e000000006044820152fd5b5083606492519162461bcd60e51b8352820152601d60248201527f43616e6e6f74206275726e2066726f6d207a65726f20616464726573730000006044820152fd5b604492519163e2517d3f60e01b835233908301526024820152fd5b505050346102345781600319360112610234578051610275916102638261025c8161133d565b509050346103965781600319360112610396578160209360ff92610971611239565b90358252600986528282206001600160a01b039091168252855220549151911615158152f35b908385346106ef57806003193601126106ef576109d37f0000000000000000000000000000000000000000000000000000000000000000611aa9565b906109fd7f0000000000000000000000000000000000000000000000000000000000000000611bad565b92805193602093602086019686881067ffffffffffffffff891117610aa25750959390610a5883602092878b999652868652610a4b82519a8b9a600f60f81b8c5280878d01528b01906111de565b91898303908a01526111de565b924660608801523060808801528460a088015286840360c088015251928381520193925b828110610a8b57505050500390f35b835185528695509381019392810192600101610a7c565b634e487b7160e01b855260419052602484fd5b5050503461023457816003193601126102345760207f62e78cea01bee320cd4e420270b5ea74000d11b0c9f74754ebdbfc544b05a25891610af46115d8565b610afc611a8b565b600160ff19600854161760085551338152a180f35b505050346102345760203660031901126102345760209181906001600160a01b03610b3a61121e565b1681526007845220549051908152f35b505050346102345760203660031901126102345760209181906001600160a01b03610b7361121e565b168152600f845220549051908152f35b505050346102345760203660031901126102345760209181906001600160a01b03610bac61121e565b16815280845220549051908152f35b5050503461023457816003193601126102345760209060ff6008541690519015158152f35b84828534610396578060031936011261039657610bfb61121e565b90602435907f9f2df0fed2c77648de5860a4cc508cd0818c85b8b8a1ab4ceeef8d981c8956a69283865260209360098552828720338852855260ff838820541615610d6c5750610c496119d5565b6001600160a01b0316938415610d2b5760025490610c67848361153b565b600d5410610cef575090610ca6837f3f2c9d57c068687834f0de942a9babb9e5acab57d516d3480a3c16ee165a4273959493610ca1611a8b565b61153b565b60025584865285835280862082815401905584867fddf252ad1be2c89b69c2b068fc378daa952ba7f163c4a11628f55a4df523b3ef858451868152a351908152a26001600a5580f35b825162461bcd60e51b8152908101859052601660248201527545786365656473206d6178696d756d20737570706c7960501b6044820152606490fd5b83606492519162461bcd60e51b8352820152601b60248201527f43616e6e6f74206d696e7420746f207a65726f206164647265737300000000006044820152fd5b825163e2517d3f60e01b815233818801526024810191909152604490fd5b50905034610396578260031936011261039657610da56115d8565b6008549060ff821615610de7575060ff1916600855513381527f5db9ee0a495bf2e6ff9c91a7834c1ba4fdd244a5e8aa4e537bd38aeae4b073aa90602090a180f35b8251638dfc202b60e01b8152fd5b50505034610234578160031936011261023457602090516201518042048152f35b50838334610234578060031936011261023457610e31611239565b90336001600160a01b03831603610e4e575061039291923561195e565b5163334bd91960e11b81528390fd5b50505034610234578160031936011261023457602090610e7b611833565b9051908152f35b505050346102345781600319360112610234576020905160128152f35b848285346103965780600319360112610396576103929135610ec4600161037b611239565b6117b3565b50505034610234578160031936011261023457602090517f3c11d16cbaffd01df69ce1c404f6340ee057498f5f00246190ea54220576a8488152f35b505050346102345780600319360112610234577fd3d22ffd28b02735cf411bd7f925bd8da01212c7028153e0d632e2953ac3088e6020610f4361121e565b60243590610f4f61155e565b6001600160a01b0316808652600f83528486208290559351908152a280f35b509050346103965760203660031901126103965781602093600192358152600985522001549051908152f35b838286346106ef5760603660031901126106ef57610fb661121e565b610fbe611239565b916044359360018060a01b038316808352600160205286832033845260205286832054916000198310610ffa575b60208861071d89898961165a565b86831061106257811561104b5733156110345750825260016020908152868320338452815291869020908590039055829061071d87610fec565b8751634a1406b160e11b8152908101849052602490fd5b875163e602df0560e01b8152908101849052602490fd5b8751637dc7a0d960e11b8152339181019182526020820193909352604081018790528291506060010390fd5b50905034610396576020366003190112610396577f7c1cb3702d8e1fa6d24b12dd90670ab69c6d66d58233103d37da8b07d6b850ac9160209135906110d161155e565b8160125551908152a180f35b505050346102345781600319360112610234576020906002549051908152f35b5050503461023457806003193601126102345760209061071d61111e61121e565b60243590336119f8565b505050346102345781600319360112610234578051610275916102638261025c81611289565b50505034610234578160031936011261023457602090517f442a94f1a1fac79af32856af2a64f63648cfa2ef3b98610a5bb7cbec4cee69858152f35b85908334610396576020366003190112610396573563ffffffff60e01b81168091036103965760209250637965db0b60e01b81149081156111cd575b5015158152f35b6301ffc9a760e01b149050836111c6565b919082519283825260005b84811061120a575050826000602080949584010152601f8019910116010190565b6020818301810151848301820152016111e9565b600435906001600160a01b038216820361123457565b600080fd5b602435906001600160a01b038216820361123457565b90600182811c9216801561127f575b602083101461126957565b634e487b7160e01b600052602260045260246000fd5b91607f169161125e565b600354600092916112998261124f565b8082529160209060019081811690811561131857506001146112bc575b50505050565b9293945060036000527fc2575a0e9e593c00f959f8c92f12db2869c3395a3b0502d05e2516446f71f85b926000935b8585106113055750505060209250010190388080806112b6565b80548585018401529382019381016112eb565b92505050602093945060ff929192191683830152151560051b010190388080806112b6565b6004546000929161134d8261124f565b80825291602090600190818116908115611318575060011461136f5750505050565b9293945060046000527f8a35acfbc15ff81a39ae7d344fd709f28e8600b4aa8c65c6b64bfe7fe36bd19b926000935b8585106113b85750505060209250010190388080806112b6565b805485850184015293820193810161139e565b600b54600092916113db8261124f565b8082529160209060019081811690811561131857506001146113fd5750505050565b92939450600b6000527f0175b7a638427703f0dbe7bb9bbf987a2551717b34e79f33b5b1008d1fa01db9926000935b8585106114465750505060209250010190388080806112b6565b805485850184015293820193810161142c565b600c54600092916114698261124f565b80825291602090600190818116908115611318575060011461148b5750505050565b92939450600c6000527fdf6966c971051c3d54ec59162606531493a51404a002842f56009d7e5cf4a8c7926000935b8585106114d45750505060209250010190388080806112b6565b80548585018401529382019381016114ba565b6040810190811067ffffffffffffffff82111761150357604052565b634e487b7160e01b600052604160045260246000fd5b90601f8019910116810190811067ffffffffffffffff82111761150357604052565b9190820180921161154857565b634e487b7160e01b600052601160045260246000fd5b3360009081527f4fcb20797bc22b6bdf05ed948026fdc1b31b30d107ac0811a08b18c975bbd64b60205260409020547f442a94f1a1fac79af32856af2a64f63648cfa2ef3b98610a5bb7cbec4cee69859060ff16156115ba5750565b6044906040519063e2517d3f60e01b82523360048301526024820152fd5b3360009081527f84574a31e2f767388bfa57bc81ff2590df95d3022c04c363cca3e37ee960863160205260409020547f65d7a28e3265b37a6474929f336521b332c1681b933f6cb9f3376673440d862a9060ff16156115ba5750565b80600052600960205260406000203360005260205260ff60406000205416156115ba5750565b90916001600160a01b038083169290831561179a57841693841561178157826116839183611d82565b15611745576000838152601060205260409182822062015180420483526020528282206116b185825461153b565b90556116bb611a8b565b848252816020528282205490848210611714575091808285602095887fddf252ad1be2c89b69c2b068fc378daa952ba7f163c4a11628f55a4df523b3ef98965282875203828220558781522082815401905551908152a3565b835163391434e360e21b81526001600160a01b03919091166004820152602481019190915260448101849052606490fd5b60405162461bcd60e51b8152602060048201526014602482015273151c985b9cd9995c881b9bdd08185b1b1bddd95960621b6044820152606490fd5b60405163ec442f0560e01b815260006004820152602490fd5b604051634b637e8f60e11b815260006004820152602490fd5b906000918083526009602052604083209160018060a01b03169182845260205260ff6040842054161560001461182e5780835260096020526040832082845260205260408320600160ff198254161790557f2f8788117e7eff1d82e926ec794901d17c78024a50270940304540a733656f0d339380a4600190565b505090565b307f00000000000000000000000000000000000000000000000000000000000000006001600160a01b03161480611935575b1561188e577f000000000000000000000000000000000000000000000000000000000000000090565b60405160208101907f8b73c3c69bb8fe3d512ecc4cf759cc79239f7b179b0ffacaa9a75d522b39400f82527f000000000000000000000000000000000000000000000000000000000000000060408201527f000000000000000000000000000000000000000000000000000000000000000060608201524660808201523060a082015260a0815260c0810181811067ffffffffffffffff8211176115035760405251902090565b507f00000000000000000000000000000000000000000000000000000000000000004614611865565b906000918083526009602052604083209160018060a01b03169182845260205260ff60408420541660001461182e578083526009602052604083208284526020526040832060ff1981541690557ff6391f5c32d9c69d2a47ea670b442974b53935d1edc7fd64eb21e047a839171b339380a4600190565b6002600a54146119e6576002600a55565b604051633ee5aeb560e01b8152600490fd5b6001600160a01b03908116918215611a725716918215611a595760207f8c5be1e5ebec7d5bd14f71427d1e84f3dd0314c0f7b2291e5b200ac8c7c3b925918360005260018252604060002085600052825280604060002055604051908152a3565b604051634a1406b160e11b815260006004820152602490fd5b60405163e602df0560e01b815260006004820152602490fd5b60ff60085416611a9757565b60405163d93c066560e01b8152600490fd5b60ff8114611ae75760ff811690601f8211611ad55760405191611acb836114e7565b8252602082015290565b604051632cd44ac360e21b8152600490fd5b50604051600554816000611afa8361124f565b80835292602090600190818116908115611b895750600114611b28575b5050611b2592500382611519565b90565b91509260056000527f036b6384b5eca791c62761152d0c79bb0604c104a5fb6f4eb0703f3154bb3db0936000925b828410611b715750611b259450505081016020013880611b17565b85548785018301529485019486945092810192611b56565b91505060209250611b2594915060ff191682840152151560051b8201013880611b17565b60ff8114611bcf5760ff811690601f8211611ad55760405191611acb836114e7565b50604051600654816000611be28361124f565b80835292602090600190818116908115611b895750600114611c0c575050611b2592500382611519565b91509260066000527ff652222313e28459528d920b65115c16c04f3efc82aaedc97be59f3f377c0d3f936000925b828410611c555750611b259450505081016020013880611b17565b85548785018301529485019486945092810192611c3a565b91907f7fffffffffffffffffffffffffffffff5d576e7357a4501ddfe92f46681b20a08411611cf157926020929160ff608095604051948552168484015260408301526060820152600092839182805260015afa15611ce55780516001600160a01b03811615611cdc57918190565b50809160019190565b604051903d90823e3d90fd5b50505060009160039190565b6004811015611d6c5780611d0f575050565b60018103611d295760405163f645eedf60e01b8152600490fd5b60028103611d4a5760405163fce698f760e01b815260048101839052602490fd5b600314611d545750565b602490604051906335e2f38360e21b82526004820152fd5b634e487b7160e01b600052602160045260246000fd5b919060018060a01b0380931690600093828552600e60205260ff604086205416918215611e07575b505061182e57601254821161182e578252600f60205260408220548015611dfa57611def90915b6010602052604084206201518042048552602052604084205461153b565b11611b255750600190565b50611def60115491611dd1565b16845250604083205460ff163880611daa56fea264697066735822122020d7f16771b70444d4041c0b6723667f1452ca70018594b409a99119ad91f85464736f6c634300081800332f8788117e7eff1d82e926ec794901d17c78024a50270940304540a733656f0d","opcodes":"PUSH2 0x160 DUP1 PUSH1 0x40 MSTORE CALLVALUE PUSH3 0xA2C JUMPI PUSH3 0x2F40 DUP1 CODESIZE SUB DUP1 SWAP2 PUSH3 0x21 DUP3 DUP6 PUSH3 0xA31 JUMP JUMPDEST DUP4 CODECOPY DUP2 ADD SWAP1 PUSH1 0xE0 DUP2 DUP4 SUB SLT PUSH3 0xA2C JUMPI DUP1 MLOAD PUSH1 0x1 PUSH1 0x1 PUSH1 0x40 SHL SUB DUP2 GT PUSH3 0xA2C JUMPI DUP3 PUSH3 0x50 SWAP2 DUP4 ADD PUSH3 0xA7A JUMP JUMPDEST PUSH1 0x20 DUP3 ADD MLOAD PUSH1 0x1 PUSH1 0x1 PUSH1 0x40 SHL SUB DUP2 GT PUSH3 0xA2C JUMPI DUP4 PUSH3 0x72 SWAP2 DUP5 ADD PUSH3 0xA7A JUMP JUMPDEST PUSH1 0x40 DUP4 ADD MLOAD PUSH1 0x1 PUSH1 0x1 PUSH1 0x40 SHL SUB DUP2 GT PUSH3 0xA2C JUMPI DUP5 PUSH3 0x94 SWAP2 DUP6 ADD PUSH3 0xA7A JUMP JUMPDEST PUSH1 0x60 DUP5 ADD MLOAD SWAP1 SWAP5 PUSH1 0x1 PUSH1 0x1 PUSH1 0x40 SHL SUB DUP3 GT PUSH3 0xA2C JUMPI PUSH3 0xB7 SWAP2 DUP6 ADD PUSH3 0xA7A JUMP JUMPDEST SWAP4 PUSH1 0x80 DUP5 ADD MLOAD SWAP2 PUSH1 0xC0 PUSH1 0xA0 DUP7 ADD MLOAD SWAP6 ADD MLOAD SWAP4 PUSH1 0x1 DUP1 PUSH1 0xA0 SHL SUB DUP6 AND DUP6 SUB PUSH3 0xA2C JUMPI PUSH1 0x40 DUP1 MLOAD SWAP3 SWAP1 DUP4 ADD PUSH1 0x1 PUSH1 0x1 PUSH1 0x40 SHL SUB DUP2 GT DUP5 DUP3 LT OR PUSH3 0x5FB JUMPI PUSH1 0x40 MSTORE PUSH1 0x1 DUP4 MSTORE PUSH1 0x31 PUSH1 0xF8 SHL PUSH1 0x20 DUP5 ADD MSTORE DUP2 MLOAD PUSH1 0x1 PUSH1 0x1 PUSH1 0x40 SHL SUB DUP2 GT PUSH3 0x5FB JUMPI PUSH1 0x3 SLOAD PUSH1 0x1 DUP2 DUP2 SHR SWAP2 AND DUP1 ISZERO PUSH3 0xA21 JUMPI JUMPDEST PUSH1 0x20 DUP3 LT EQ PUSH3 0x5DA JUMPI PUSH1 0x1F DUP2 GT PUSH3 0x9BB JUMPI JUMPDEST POP DUP1 PUSH1 0x20 PUSH1 0x1F DUP3 GT PUSH1 0x1 EQ PUSH3 0x931 JUMPI PUSH1 0x0 SWAP2 PUSH3 0x925 JUMPI JUMPDEST POP DUP2 PUSH1 0x1 SHL SWAP2 PUSH1 0x0 NOT SWAP1 PUSH1 0x3 SHL SHR NOT AND OR PUSH1 0x3 SSTORE JUMPDEST DUP1 MLOAD SWAP1 PUSH1 0x1 PUSH1 0x1 PUSH1 0x40 SHL SUB DUP3 GT PUSH3 0x5FB JUMPI PUSH1 0x4 SLOAD SWAP1 PUSH1 0x1 DUP3 DUP2 SHR SWAP3 AND DUP1 ISZERO PUSH3 0x91A JUMPI JUMPDEST PUSH1 0x20 DUP4 LT EQ PUSH3 0x5DA JUMPI DUP2 PUSH1 0x1F DUP5 SWAP4 GT PUSH3 0x8A5 JUMPI JUMPDEST POP PUSH1 0x20 SWAP1 PUSH1 0x1F DUP4 GT PUSH1 0x1 EQ PUSH3 0x816 JUMPI PUSH1 0x0 SWAP3 PUSH3 0x80A JUMPI JUMPDEST POP POP DUP2 PUSH1 0x1 SHL SWAP2 PUSH1 0x0 NOT SWAP1 PUSH1 0x3 SHL SHR NOT AND OR PUSH1 0x4 SSTORE JUMPDEST PUSH3 0x1DF DUP2 PUSH3 0xDD3 JUMP JUMPDEST PUSH2 0x120 MSTORE PUSH3 0x1EE DUP3 PUSH3 0xF78 JUMP JUMPDEST PUSH2 0x140 MSTORE PUSH1 0x20 DUP2 MLOAD SWAP2 ADD KECCAK256 SWAP1 DUP2 PUSH1 0xE0 MSTORE PUSH1 0x20 DUP2 MLOAD SWAP2 ADD KECCAK256 DUP1 PUSH2 0x100 MSTORE CHAINID PUSH1 0xA0 MSTORE PUSH1 0x40 MLOAD SWAP1 PUSH1 0x20 DUP3 ADD SWAP3 PUSH32 0x8B73C3C69BB8FE3D512ECC4CF759CC79239F7B179B0FFACAA9A75D522B39400F DUP5 MSTORE PUSH1 0x40 DUP4 ADD MSTORE PUSH1 0x60 DUP3 ADD MSTORE CHAINID PUSH1 0x80 DUP3 ADD MSTORE ADDRESS PUSH1 0xA0 DUP3 ADD MSTORE PUSH1 0xA0 DUP2 MSTORE PUSH1 0xC0 DUP2 ADD SWAP2 DUP2 DUP4 LT PUSH1 0x1 DUP1 PUSH1 0x40 SHL SUB DUP5 GT OR PUSH3 0x5FB JUMPI PUSH1 0x40 DUP4 SWAP1 MSTORE DUP2 MLOAD SWAP1 KECCAK256 PUSH1 0x80 MSTORE ADDRESS PUSH1 0xC0 MSTORE PUSH1 0x1 PUSH1 0xA SSTORE PUSH10 0xD3C21BCECCEDA1000000 PUSH1 0x11 SSTORE PUSH10 0x152D02C7E14AF6800000 PUSH1 0x12 SSTORE PUSH1 0x1 PUSH1 0x1 PUSH1 0xA0 SHL SUB DUP6 AND ISZERO PUSH3 0x7C6 JUMPI POP POP DUP2 ISZERO PUSH3 0x777 JUMPI DUP2 DUP5 GT PUSH3 0x728 JUMPI DUP1 MLOAD SWAP1 PUSH1 0x1 PUSH1 0x1 PUSH1 0x40 SHL SUB DUP3 GT PUSH3 0x5FB JUMPI PUSH1 0xB SLOAD SWAP1 PUSH1 0x1 DUP3 DUP2 SHR SWAP3 AND DUP1 ISZERO PUSH3 0x71D JUMPI JUMPDEST PUSH1 0x20 DUP4 LT EQ PUSH3 0x5DA JUMPI DUP2 PUSH1 0x1F DUP5 SWAP4 GT PUSH3 0x6A8 JUMPI JUMPDEST POP PUSH1 0x20 SWAP1 PUSH1 0x1F DUP4 GT PUSH1 0x1 EQ PUSH3 0x61D JUMPI PUSH1 0x0 SWAP3 PUSH3 0x611 JUMPI JUMPDEST POP POP DUP2 PUSH1 0x1 SHL SWAP2 PUSH1 0x0 NOT SWAP1 PUSH1 0x3 SHL SHR NOT AND OR PUSH1 0xB SSTORE JUMPDEST DUP4 MLOAD PUSH1 0x1 PUSH1 0x1 PUSH1 0x40 SHL SUB DUP2 GT PUSH3 0x5FB JUMPI PUSH1 0xC SLOAD PUSH1 0x1 DUP2 DUP2 SHR SWAP2 AND DUP1 ISZERO PUSH3 0x5F0 JUMPI JUMPDEST PUSH1 0x20 DUP3 LT EQ PUSH3 0x5DA JUMPI PUSH1 0x1F DUP2 GT PUSH3 0x570 JUMPI JUMPDEST POP PUSH1 0x20 SWAP5 PUSH1 0x1F DUP3 GT PUSH1 0x1 EQ PUSH3 0x503 JUMPI SWAP5 DUP2 SWAP3 SWAP4 SWAP5 SWAP6 PUSH1 0x0 SWAP3 PUSH3 0x4F7 JUMPI JUMPDEST POP POP DUP2 PUSH1 0x1 SHL SWAP2 PUSH1 0x0 NOT SWAP1 PUSH1 0x3 SHL SHR NOT AND OR PUSH1 0xC SSTORE JUMPDEST PUSH1 0xD SSTORE PUSH3 0x3A1 DUP2 PUSH3 0xAD5 JUMP JUMPDEST POP PUSH3 0x3AD DUP2 PUSH3 0xB56 JUMP JUMPDEST POP PUSH3 0x3B9 DUP2 PUSH3 0xBF9 JUMP JUMPDEST POP PUSH3 0x3C5 DUP2 PUSH3 0xC97 JUMP JUMPDEST POP PUSH3 0x3D1 DUP2 PUSH3 0xD35 JUMP JUMPDEST POP DUP2 PUSH3 0x42B JUMPI JUMPDEST PUSH1 0x40 MLOAD PUSH2 0x1E50 SWAP1 DUP2 PUSH3 0x10D0 DUP3 CODECOPY PUSH1 0x80 MLOAD DUP2 PUSH2 0x186C ADD MSTORE PUSH1 0xA0 MLOAD DUP2 PUSH2 0x1938 ADD MSTORE PUSH1 0xC0 MLOAD DUP2 PUSH2 0x1836 ADD MSTORE PUSH1 0xE0 MLOAD DUP2 PUSH2 0x18BB ADD MSTORE PUSH2 0x100 MLOAD DUP2 PUSH2 0x18E1 ADD MSTORE PUSH2 0x120 MLOAD DUP2 PUSH2 0x9AF ADD MSTORE PUSH2 0x140 MLOAD DUP2 PUSH2 0x9D9 ADD MSTORE RETURN JUMPDEST PUSH1 0xFF PUSH1 0x8 SLOAD AND PUSH3 0x4E5 JUMPI PUSH1 0x2 SLOAD DUP3 DUP2 ADD DUP1 SWAP2 GT PUSH3 0x4CF JUMPI PUSH1 0x2 SSTORE PUSH1 0x1 PUSH1 0x1 PUSH1 0xA0 SHL SUB DUP2 AND PUSH1 0x0 DUP2 DUP2 MSTORE PUSH1 0x20 DUP2 DUP2 MSTORE PUSH1 0x40 DUP1 DUP4 KECCAK256 DUP1 SLOAD DUP8 ADD SWAP1 SSTORE MLOAD DUP6 DUP2 MSTORE PUSH32 0x3F2C9D57C068687834F0DE942A9BABB9E5ACAB57D516D3480A3C16EE165A4273 SWAP5 SWAP2 SWAP4 SWAP2 SWAP3 SWAP1 PUSH32 0xDDF252AD1BE2C89B69C2B068FC378DAA952BA7F163C4A11628F55A4DF523B3EF SWAP1 DUP6 SWAP1 LOG3 PUSH1 0x40 MLOAD SWAP4 DUP5 MSTORE PUSH1 0x1 PUSH1 0x1 PUSH1 0xA0 SHL SUB AND SWAP3 LOG2 CODESIZE DUP1 PUSH3 0x3D9 JUMP JUMPDEST PUSH4 0x4E487B71 PUSH1 0xE0 SHL PUSH1 0x0 MSTORE PUSH1 0x11 PUSH1 0x4 MSTORE PUSH1 0x24 PUSH1 0x0 REVERT JUMPDEST PUSH1 0x40 MLOAD PUSH4 0xD93C0665 PUSH1 0xE0 SHL DUP2 MSTORE PUSH1 0x4 SWAP1 REVERT JUMPDEST ADD MLOAD SWAP1 POP CODESIZE DUP1 PUSH3 0x37D JUMP JUMPDEST PUSH1 0x1F NOT DUP3 AND SWAP6 PUSH1 0xC PUSH1 0x0 MSTORE PUSH1 0x20 PUSH1 0x0 KECCAK256 SWAP2 PUSH1 0x0 JUMPDEST DUP9 DUP2 LT PUSH3 0x557 JUMPI POP DUP4 PUSH1 0x1 SWAP6 SWAP7 SWAP8 SWAP9 LT PUSH3 0x53D JUMPI JUMPDEST POP POP POP DUP2 SHL ADD PUSH1 0xC SSTORE PUSH3 0x393 JUMP JUMPDEST ADD MLOAD PUSH1 0x0 NOT PUSH1 0xF8 DUP5 PUSH1 0x3 SHL AND SHR NOT AND SWAP1 SSTORE CODESIZE DUP1 DUP1 PUSH3 0x52E JUMP JUMPDEST SWAP2 SWAP3 PUSH1 0x20 PUSH1 0x1 DUP2 SWAP3 DUP7 DUP6 ADD MLOAD DUP2 SSTORE ADD SWAP5 ADD SWAP3 ADD PUSH3 0x517 JUMP JUMPDEST PUSH1 0xC PUSH1 0x0 MSTORE PUSH32 0xDF6966C971051C3D54EC59162606531493A51404A002842F56009D7E5CF4A8C7 PUSH1 0x1F DUP4 ADD PUSH1 0x5 SHR DUP2 ADD SWAP2 PUSH1 0x20 DUP5 LT PUSH3 0x5CF JUMPI JUMPDEST PUSH1 0x1F ADD PUSH1 0x5 SHR ADD SWAP1 JUMPDEST DUP2 DUP2 LT PUSH3 0x5C2 JUMPI POP PUSH3 0x35E JUMP JUMPDEST PUSH1 0x0 DUP2 SSTORE PUSH1 0x1 ADD PUSH3 0x5B3 JUMP JUMPDEST SWAP1 SWAP2 POP DUP2 SWAP1 PUSH3 0x5AA JUMP JUMPDEST PUSH4 0x4E487B71 PUSH1 0xE0 SHL PUSH1 0x0 MSTORE PUSH1 0x22 PUSH1 0x4 MSTORE PUSH1 0x24 PUSH1 0x0 REVERT JUMPDEST SWAP1 PUSH1 0x7F AND SWAP1 PUSH3 0x34A JUMP JUMPDEST PUSH4 0x4E487B71 PUSH1 0xE0 SHL PUSH1 0x0 MSTORE PUSH1 0x41 PUSH1 0x4 MSTORE PUSH1 0x24 PUSH1 0x0 REVERT JUMPDEST ADD MLOAD SWAP1 POP CODESIZE DUP1 PUSH3 0x311 JUMP JUMPDEST PUSH1 0xB PUSH1 0x0 SWAP1 DUP2 MSTORE PUSH32 0x175B7A638427703F0DBE7BB9BBF987A2551717B34E79F33B5B1008D1FA01DB9 SWAP4 POP PUSH1 0x1F NOT DUP6 AND SWAP1 JUMPDEST DUP2 DUP2 LT PUSH3 0x68F JUMPI POP SWAP1 DUP5 PUSH1 0x1 SWAP6 SWAP5 SWAP4 SWAP3 LT PUSH3 0x675 JUMPI JUMPDEST POP POP POP DUP2 SHL ADD PUSH1 0xB SSTORE PUSH3 0x327 JUMP JUMPDEST ADD MLOAD PUSH1 0x0 NOT PUSH1 0xF8 DUP5 PUSH1 0x3 SHL AND SHR NOT AND SWAP1 SSTORE CODESIZE DUP1 DUP1 PUSH3 0x666 JUMP JUMPDEST SWAP3 SWAP4 PUSH1 0x20 PUSH1 0x1 DUP2 SWAP3 DUP8 DUP7 ADD MLOAD DUP2 SSTORE ADD SWAP6 ADD SWAP4 ADD PUSH3 0x64E JUMP JUMPDEST PUSH1 0xB PUSH1 0x0 MSTORE SWAP1 SWAP2 POP PUSH32 0x175B7A638427703F0DBE7BB9BBF987A2551717B34E79F33B5B1008D1FA01DB9 PUSH1 0x1F DUP5 ADD PUSH1 0x5 SHR DUP2 ADD SWAP2 PUSH1 0x20 DUP6 LT PUSH3 0x712 JUMPI JUMPDEST SWAP1 PUSH1 0x1F DUP6 SWAP5 SWAP4 SWAP3 ADD PUSH1 0x5 SHR ADD SWAP1 JUMPDEST DUP2 DUP2 LT PUSH3 0x702 JUMPI POP PUSH3 0x2F8 JUMP JUMPDEST PUSH1 0x0 DUP2 SSTORE DUP5 SWAP4 POP PUSH1 0x1 ADD PUSH3 0x6F3 JUMP JUMPDEST SWAP1 SWAP2 POP DUP2 SWAP1 PUSH3 0x6E5 JUMP JUMPDEST SWAP2 PUSH1 0x7F AND SWAP2 PUSH3 0x2E2 JUMP JUMPDEST PUSH1 0x40 MLOAD PUSH3 0x461BCD PUSH1 0xE5 SHL DUP2 MSTORE PUSH1 0x20 PUSH1 0x4 DUP3 ADD MSTORE PUSH1 0x21 PUSH1 0x24 DUP3 ADD MSTORE PUSH32 0x496E697469616C20737570706C792065786365656473206D617820737570706C PUSH1 0x44 DUP3 ADD MSTORE PUSH1 0x79 PUSH1 0xF8 SHL PUSH1 0x64 DUP3 ADD MSTORE PUSH1 0x84 SWAP1 REVERT JUMPDEST PUSH1 0x40 MLOAD PUSH3 0x461BCD PUSH1 0xE5 SHL DUP2 MSTORE PUSH1 0x20 PUSH1 0x4 DUP3 ADD MSTORE PUSH1 0x21 PUSH1 0x24 DUP3 ADD MSTORE PUSH32 0x4D617820737570706C79206D7573742062652067726561746572207468616E20 PUSH1 0x44 DUP3 ADD MSTORE PUSH1 0x3 PUSH1 0xFC SHL PUSH1 0x64 DUP3 ADD MSTORE PUSH1 0x84 SWAP1 REVERT JUMPDEST PUSH3 0x461BCD PUSH1 0xE5 SHL DUP3 MSTORE PUSH1 0x20 PUSH1 0xC4 DUP3 ADD MSTORE PUSH1 0x1C PUSH1 0xE4 DUP3 ADD MSTORE PUSH32 0x41646D696E2063616E6E6F74206265207A65726F206164647265737300000000 PUSH2 0x104 SWAP1 SWAP2 ADD MSTORE PUSH1 0x64 SWAP1 REVERT JUMPDEST ADD MLOAD SWAP1 POP CODESIZE DUP1 PUSH3 0x1BE JUMP JUMPDEST PUSH1 0x4 PUSH1 0x0 SWAP1 DUP2 MSTORE SWAP4 POP PUSH32 0x8A35ACFBC15FF81A39AE7D344FD709F28E8600B4AA8C65C6B64BFE7FE36BD19B SWAP2 SWAP1 JUMPDEST PUSH1 0x1F NOT DUP5 AND DUP6 LT PUSH3 0x889 JUMPI PUSH1 0x1 SWAP5 POP DUP4 PUSH1 0x1F NOT DUP2 AND LT PUSH3 0x86F JUMPI JUMPDEST POP POP POP DUP2 SHL ADD PUSH1 0x4 SSTORE PUSH3 0x1D4 JUMP JUMPDEST ADD MLOAD PUSH1 0x0 NOT PUSH1 0xF8 DUP5 PUSH1 0x3 SHL AND SHR NOT AND SWAP1 SSTORE CODESIZE DUP1 DUP1 PUSH3 0x860 JUMP JUMPDEST DUP2 DUP2 ADD MLOAD DUP4 SSTORE PUSH1 0x20 SWAP5 DUP6 ADD SWAP5 PUSH1 0x1 SWAP1 SWAP4 ADD SWAP3 SWAP1 SWAP2 ADD SWAP1 PUSH3 0x843 JUMP JUMPDEST PUSH1 0x4 PUSH1 0x0 MSTORE SWAP1 SWAP2 POP PUSH32 0x8A35ACFBC15FF81A39AE7D344FD709F28E8600B4AA8C65C6B64BFE7FE36BD19B PUSH1 0x1F DUP5 ADD PUSH1 0x5 SHR DUP2 ADD SWAP2 PUSH1 0x20 DUP6 LT PUSH3 0x90F JUMPI JUMPDEST SWAP1 PUSH1 0x1F DUP6 SWAP5 SWAP4 SWAP3 ADD PUSH1 0x5 SHR ADD SWAP1 JUMPDEST DUP2 DUP2 LT PUSH3 0x8FF JUMPI POP PUSH3 0x1A5 JUMP JUMPDEST PUSH1 0x0 DUP2 SSTORE DUP5 SWAP4 POP PUSH1 0x1 ADD PUSH3 0x8F0 JUMP JUMPDEST SWAP1 SWAP2 POP DUP2 SWAP1 PUSH3 0x8E2 JUMP JUMPDEST SWAP2 PUSH1 0x7F AND SWAP2 PUSH3 0x18F JUMP JUMPDEST SWAP1 POP DUP4 ADD MLOAD CODESIZE PUSH3 0x155 JUMP JUMPDEST PUSH1 0x3 PUSH1 0x0 SWAP1 DUP2 MSTORE SWAP3 POP PUSH32 0xC2575A0E9E593C00F959F8C92F12DB2869C3395A3B0502D05E2516446F71F85B SWAP1 JUMPDEST PUSH1 0x1F NOT DUP4 AND DUP5 LT PUSH3 0x9A2 JUMPI PUSH1 0x1 SWAP4 POP DUP3 PUSH1 0x1F NOT DUP2 AND LT PUSH3 0x988 JUMPI JUMPDEST POP POP DUP2 SHL ADD PUSH1 0x3 SSTORE PUSH3 0x16A JUMP JUMPDEST DUP6 ADD MLOAD PUSH1 0x0 NOT PUSH1 0xF8 DUP5 PUSH1 0x3 SHL AND SHR NOT AND SWAP1 SSTORE CODESIZE DUP1 PUSH3 0x97A JUMP JUMPDEST DUP6 DUP2 ADD MLOAD DUP3 SSTORE PUSH1 0x20 SWAP4 DUP5 ADD SWAP4 PUSH1 0x1 SWAP1 SWAP3 ADD SWAP2 ADD PUSH3 0x95D JUMP JUMPDEST PUSH1 0x3 PUSH1 0x0 MSTORE PUSH32 0xC2575A0E9E593C00F959F8C92F12DB2869C3395A3B0502D05E2516446F71F85B PUSH1 0x1F DUP4 ADD PUSH1 0x5 SHR DUP2 ADD PUSH1 0x20 DUP5 LT PUSH3 0xA19 JUMPI JUMPDEST PUSH1 0x1F DUP4 ADD PUSH1 0x5 SHR DUP3 ADD DUP2 LT PUSH3 0xA0C JUMPI POP POP PUSH3 0x13C JUMP JUMPDEST PUSH1 0x0 DUP2 SSTORE PUSH1 0x1 ADD PUSH3 0x9F4 JUMP JUMPDEST POP DUP1 PUSH3 0x9F4 JUMP JUMPDEST SWAP1 PUSH1 0x7F AND SWAP1 PUSH3 0x128 JUMP JUMPDEST PUSH1 0x0 DUP1 REVERT JUMPDEST PUSH1 0x1F SWAP1 SWAP2 ADD PUSH1 0x1F NOT AND DUP2 ADD SWAP1 PUSH1 0x1 PUSH1 0x1 PUSH1 0x40 SHL SUB DUP3 GT SWAP1 DUP3 LT OR PUSH3 0x5FB JUMPI PUSH1 0x40 MSTORE JUMP JUMPDEST PUSH1 0x0 JUMPDEST DUP4 DUP2 LT PUSH3 0xA69 JUMPI POP POP PUSH1 0x0 SWAP2 ADD MSTORE JUMP JUMPDEST DUP2 DUP2 ADD MLOAD DUP4 DUP3 ADD MSTORE PUSH1 0x20 ADD PUSH3 0xA58 JUMP JUMPDEST DUP2 PUSH1 0x1F DUP3 ADD SLT ISZERO PUSH3 0xA2C JUMPI DUP1 MLOAD PUSH1 0x1 PUSH1 0x1 PUSH1 0x40 SHL SUB DUP2 GT PUSH3 0x5FB JUMPI PUSH1 0x40 MLOAD SWAP3 PUSH3 0xAB1 PUSH1 0x1F DUP4 ADD PUSH1 0x1F NOT AND PUSH1 0x20 ADD DUP6 PUSH3 0xA31 JUMP JUMPDEST DUP2 DUP5 MSTORE PUSH1 0x20 DUP3 DUP5 ADD ADD GT PUSH3 0xA2C JUMPI PUSH3 0xAD2 SWAP2 PUSH1 0x20 DUP1 DUP6 ADD SWAP2 ADD PUSH3 0xA55 JUMP JUMPDEST SWAP1 JUMP JUMPDEST PUSH1 0x1 PUSH1 0x1 PUSH1 0xA0 SHL SUB AND PUSH1 0x0 DUP2 DUP2 MSTORE PUSH32 0xEC8156718A8372B1DB44BB411437D0870F3E3790D4A08526D024CE1B0B668F6B PUSH1 0x20 MSTORE PUSH1 0x40 DUP2 KECCAK256 SLOAD SWAP1 SWAP2 SWAP1 PUSH1 0xFF AND PUSH3 0xB52 JUMPI DUP2 DUP1 MSTORE PUSH1 0x9 PUSH1 0x20 MSTORE PUSH1 0x40 DUP3 KECCAK256 DUP2 DUP4 MSTORE PUSH1 0x20 MSTORE PUSH1 0x40 DUP3 KECCAK256 PUSH1 0x1 PUSH1 0xFF NOT DUP3 SLOAD AND OR SWAP1 SSTORE CALLER SWAP2 PUSH1 0x0 DUP1 MLOAD PUSH1 0x20 PUSH3 0x2F20 DUP4 CODECOPY DUP2 MLOAD SWAP2 MSTORE DUP2 DUP1 LOG4 PUSH1 0x1 SWAP1 JUMP JUMPDEST POP SWAP1 JUMP JUMPDEST PUSH1 0x1 PUSH1 0x1 PUSH1 0xA0 SHL SUB AND PUSH1 0x0 DUP2 DUP2 MSTORE PUSH32 0xD5D09B8F3165A736D25B1A14611612AC91830C1B82012B1C33B2DAC7C90A0649 PUSH1 0x20 MSTORE PUSH1 0x40 DUP2 KECCAK256 SLOAD SWAP1 SWAP2 SWAP1 PUSH32 0x9F2DF0FED2C77648DE5860A4CC508CD0818C85B8B8A1AB4CEEEF8D981C8956A6 SWAP1 PUSH1 0xFF AND PUSH3 0xBF4 JUMPI DUP1 DUP4 MSTORE PUSH1 0x9 PUSH1 0x20 MSTORE PUSH1 0x40 DUP4 KECCAK256 DUP3 DUP5 MSTORE PUSH1 0x20 MSTORE PUSH1 0x40 DUP4 KECCAK256 PUSH1 0x1 PUSH1 0xFF NOT DUP3 SLOAD AND OR SWAP1 SSTORE PUSH1 0x0 DUP1 MLOAD PUSH1 0x20 PUSH3 0x2F20 DUP4 CODECOPY DUP2 MLOAD SWAP2 MSTORE CALLER SWAP4 DUP1 LOG4 PUSH1 0x1 SWAP1 JUMP JUMPDEST POP POP SWAP1 JUMP JUMPDEST PUSH1 0x1 PUSH1 0x1 PUSH1 0xA0 SHL SUB AND PUSH1 0x0 DUP2 DUP2 MSTORE PUSH32 0xAFC27DADD95CC92CC3511384503AFBC19841FE8E9D61FEFC7F2FB1E6A3BD40C2 PUSH1 0x20 MSTORE PUSH1 0x40 DUP2 KECCAK256 SLOAD SWAP1 SWAP2 SWAP1 PUSH32 0x3C11D16CBAFFD01DF69CE1C404F6340EE057498F5F00246190EA54220576A848 SWAP1 PUSH1 0xFF AND PUSH3 0xBF4 JUMPI DUP1 DUP4 MSTORE PUSH1 0x9 PUSH1 0x20 MSTORE PUSH1 0x40 DUP4 KECCAK256 DUP3 DUP5 MSTORE PUSH1 0x20 MSTORE PUSH1 0x40 DUP4 KECCAK256 PUSH1 0x1 PUSH1 0xFF NOT DUP3 SLOAD AND OR SWAP1 SSTORE PUSH1 0x0 DUP1 MLOAD PUSH1 0x20 PUSH3 0x2F20 DUP4 CODECOPY DUP2 MLOAD SWAP2 MSTORE CALLER SWAP4 DUP1 LOG4 PUSH1 0x1 SWAP1 JUMP JUMPDEST PUSH1 0x1 PUSH1 0x1 PUSH1 0xA0 SHL SUB AND PUSH1 0x0 DUP2 DUP2 MSTORE PUSH32 0x84574A31E2F767388BFA57BC81FF2590DF95D3022C04C363CCA3E37EE9608631 PUSH1 0x20 MSTORE PUSH1 0x40 DUP2 KECCAK256 SLOAD SWAP1 SWAP2 SWAP1 PUSH32 0x65D7A28E3265B37A6474929F336521B332C1681B933F6CB9F3376673440D862A SWAP1 PUSH1 0xFF AND PUSH3 0xBF4 JUMPI DUP1 DUP4 MSTORE PUSH1 0x9 PUSH1 0x20 MSTORE PUSH1 0x40 DUP4 KECCAK256 DUP3 DUP5 MSTORE PUSH1 0x20 MSTORE PUSH1 0x40 DUP4 KECCAK256 PUSH1 0x1 PUSH1 0xFF NOT DUP3 SLOAD AND OR SWAP1 SSTORE PUSH1 0x0 DUP1 MLOAD PUSH1 0x20 PUSH3 0x2F20 DUP4 CODECOPY DUP2 MLOAD SWAP2 MSTORE CALLER SWAP4 DUP1 LOG4 PUSH1 0x1 SWAP1 JUMP JUMPDEST PUSH1 0x1 PUSH1 0x1 PUSH1 0xA0 SHL SUB AND PUSH1 0x0 DUP2 DUP2 MSTORE PUSH32 0x4FCB20797BC22B6BDF05ED948026FDC1B31B30D107AC0811A08B18C975BBD64B PUSH1 0x20 MSTORE PUSH1 0x40 DUP2 KECCAK256 SLOAD SWAP1 SWAP2 SWAP1 PUSH32 0x442A94F1A1FAC79AF32856AF2A64F63648CFA2EF3B98610A5BB7CBEC4CEE6985 SWAP1 PUSH1 0xFF AND PUSH3 0xBF4 JUMPI DUP1 DUP4 MSTORE PUSH1 0x9 PUSH1 0x20 MSTORE PUSH1 0x40 DUP4 KECCAK256 DUP3 DUP5 MSTORE PUSH1 0x20 MSTORE PUSH1 0x40 DUP4 KECCAK256 PUSH1 0x1 PUSH1 0xFF NOT DUP3 SLOAD AND OR SWAP1 SSTORE PUSH1 0x0 DUP1 MLOAD PUSH1 0x20 PUSH3 0x2F20 DUP4 CODECOPY DUP2 MLOAD SWAP2 MSTORE CALLER SWAP4 DUP1 LOG4 PUSH1 0x1 SWAP1 JUMP JUMPDEST DUP1 MLOAD PUSH1 0x20 SWAP2 SWAP1 DUP3 DUP2 LT ISZERO PUSH3 0xE53 JUMPI POP SWAP1 PUSH1 0x1F DUP3 MLOAD GT PUSH3 0xE11 JUMPI DUP1 DUP3 MLOAD SWAP3 ADD MLOAD SWAP1 DUP1 DUP4 LT PUSH3 0xE02 JUMPI POP OR SWAP1 JUMP JUMPDEST DUP3 PUSH1 0x0 NOT SWAP2 SUB PUSH1 0x3 SHL SHL AND OR SWAP1 JUMP JUMPDEST PUSH1 0x44 SWAP1 PUSH3 0xE45 SWAP3 PUSH1 0x40 MLOAD SWAP4 DUP5 SWAP3 PUSH4 0x305A27A9 PUSH1 0xE0 SHL DUP5 MSTORE DUP1 PUSH1 0x4 DUP6 ADD MSTORE DUP3 MLOAD SWAP3 DUP4 SWAP2 DUP3 PUSH1 0x24 DUP8 ADD MSTORE DUP7 DUP7 ADD SWAP2 ADD PUSH3 0xA55 JUMP JUMPDEST PUSH1 0x1F ADD PUSH1 0x1F NOT AND DUP2 ADD SUB ADD SWAP1 REVERT JUMPDEST PUSH1 0x1 PUSH1 0x1 PUSH1 0x40 SHL SUB DUP2 GT PUSH3 0x5FB JUMPI PUSH1 0x5 SWAP3 DUP4 SLOAD SWAP3 PUSH1 0x1 SWAP4 DUP5 DUP2 DUP2 SHR SWAP2 AND DUP1 ISZERO PUSH3 0xF6D JUMPI JUMPDEST DUP4 DUP3 LT EQ PUSH3 0x5DA JUMPI PUSH1 0x1F DUP2 GT PUSH3 0xF36 JUMPI JUMPDEST POP DUP2 PUSH1 0x1F DUP5 GT PUSH1 0x1 EQ PUSH3 0xECC JUMPI POP SWAP3 DUP3 SWAP4 SWAP2 DUP4 SWAP3 PUSH1 0x0 SWAP5 PUSH3 0xEC0 JUMPI JUMPDEST POP POP SHL SWAP2 PUSH1 0x0 NOT SWAP1 PUSH1 0x3 SHL SHR NOT AND OR SWAP1 SSTORE PUSH1 0xFF SWAP1 JUMP JUMPDEST ADD MLOAD SWAP3 POP CODESIZE DUP1 PUSH3 0xEAA JUMP JUMPDEST SWAP2 SWAP1 DUP4 PUSH1 0x1F NOT DUP2 AND DUP8 PUSH1 0x0 MSTORE DUP5 PUSH1 0x0 KECCAK256 SWAP5 PUSH1 0x0 SWAP1 JUMPDEST DUP9 DUP4 DUP4 LT PUSH3 0xF1B JUMPI POP POP POP LT PUSH3 0xF01 JUMPI JUMPDEST POP POP POP DUP2 SHL ADD SWAP1 SSTORE PUSH1 0xFF SWAP1 JUMP JUMPDEST ADD MLOAD PUSH1 0x0 NOT PUSH1 0xF8 DUP5 PUSH1 0x3 SHL AND SHR NOT AND SWAP1 SSTORE CODESIZE DUP1 DUP1 PUSH3 0xEF4 JUMP JUMPDEST DUP6 DUP8 ADD MLOAD DUP9 SSTORE SWAP1 SWAP7 ADD SWAP6 SWAP5 DUP6 ADD SWAP5 DUP8 SWAP4 POP SWAP1 DUP2 ADD SWAP1 PUSH3 0xEE1 JUMP JUMPDEST DUP6 PUSH1 0x0 MSTORE DUP5 PUSH1 0x1F DUP5 PUSH1 0x0 KECCAK256 SWAP3 ADD DUP8 SHR DUP3 ADD SWAP2 PUSH1 0x1F DUP7 ADD DUP9 SHR ADD JUMPDEST DUP3 DUP2 LT PUSH3 0xF60 JUMPI POP POP PUSH3 0xE8C JUMP JUMPDEST PUSH1 0x0 DUP2 SSTORE ADD DUP6 SWAP1 PUSH3 0xF50 JUMP JUMPDEST SWAP1 PUSH1 0x7F AND SWAP1 PUSH3 0xE79 JUMP JUMPDEST DUP1 MLOAD PUSH1 0x20 SWAP1 DUP2 DUP2 LT ISZERO PUSH3 0xFA5 JUMPI POP PUSH1 0x1F DUP3 MLOAD GT PUSH3 0xE11 JUMPI DUP1 DUP3 MLOAD SWAP3 ADD MLOAD SWAP1 DUP1 DUP4 LT PUSH3 0xE02 JUMPI POP OR SWAP1 JUMP JUMPDEST SWAP1 PUSH1 0x1 PUSH1 0x1 PUSH1 0x40 SHL SUB DUP3 GT PUSH3 0x5FB JUMPI PUSH1 0x6 SLOAD SWAP3 PUSH1 0x1 SWAP4 DUP5 DUP2 DUP2 SHR SWAP2 AND DUP1 ISZERO PUSH3 0x10C4 JUMPI JUMPDEST DUP4 DUP3 LT EQ PUSH3 0x5DA JUMPI PUSH1 0x1F DUP2 GT PUSH3 0x108A JUMPI JUMPDEST POP DUP2 PUSH1 0x1F DUP5 GT PUSH1 0x1 EQ PUSH3 0x101E JUMPI POP SWAP3 DUP3 SWAP4 SWAP2 DUP4 SWAP3 PUSH1 0x0 SWAP5 PUSH3 0x1012 JUMPI JUMPDEST POP POP SHL SWAP2 PUSH1 0x0 NOT SWAP1 PUSH1 0x3 SHL SHR NOT AND OR PUSH1 0x6 SSTORE PUSH1 0xFF SWAP1 JUMP JUMPDEST ADD MLOAD SWAP3 POP CODESIZE DUP1 PUSH3 0xFFB JUMP JUMPDEST SWAP2 SWAP1 DUP4 PUSH1 0x1F NOT DUP2 AND PUSH1 0x6 PUSH1 0x0 MSTORE DUP5 PUSH1 0x0 KECCAK256 SWAP5 PUSH1 0x0 SWAP1 JUMPDEST DUP9 DUP4 DUP4 LT PUSH3 0x106F JUMPI POP POP POP LT PUSH3 0x1055 JUMPI JUMPDEST POP POP POP DUP2 SHL ADD PUSH1 0x6 SSTORE PUSH1 0xFF SWAP1 JUMP JUMPDEST ADD MLOAD PUSH1 0x0 NOT PUSH1 0xF8 DUP5 PUSH1 0x3 SHL AND SHR NOT AND SWAP1 SSTORE CODESIZE DUP1 DUP1 PUSH3 0x1047 JUMP JUMPDEST DUP6 DUP8 ADD MLOAD DUP9 SSTORE SWAP1 SWAP7 ADD SWAP6 SWAP5 DUP6 ADD SWAP5 DUP8 SWAP4 POP SWAP1 DUP2 ADD SWAP1 PUSH3 0x1034 JUMP JUMPDEST PUSH1 0x6 PUSH1 0x0 MSTORE DUP5 PUSH1 0x1F DUP5 PUSH1 0x0 KECCAK256 SWAP3 ADD PUSH1 0x5 SHR DUP3 ADD SWAP2 PUSH1 0x1F DUP7 ADD PUSH1 0x5 SHR ADD JUMPDEST DUP3 DUP2 LT PUSH3 0x10B7 JUMPI POP POP PUSH3 0xFDD JUMP JUMPDEST PUSH1 0x0 DUP2 SSTORE ADD DUP6 SWAP1 PUSH3 0x10A7 JUMP JUMPDEST SWAP1 PUSH1 0x7F AND SWAP1 PUSH3 0xFCA JUMP INVALID PUSH1 0x80 PUSH1 0x40 DUP2 DUP2 MSTORE PUSH1 0x4 SWAP2 DUP3 CALLDATASIZE LT ISZERO PUSH2 0x16 JUMPI PUSH1 0x0 DUP1 REVERT JUMPDEST PUSH1 0x0 SWAP3 PUSH1 0xE0 DUP5 CALLDATALOAD DUP2 SHR SWAP3 DUP4 PUSH4 0x1FFC9A7 EQ PUSH2 0x118A JUMPI POP DUP3 PUSH4 0x62D3BD7 EQ PUSH2 0x114E JUMPI DUP3 PUSH4 0x6FDDE03 EQ PUSH2 0x1128 JUMPI DUP3 PUSH4 0x95EA7B3 EQ PUSH2 0x10FD JUMPI DUP3 PUSH4 0x18160DDD EQ PUSH2 0x10DD JUMPI DUP3 PUSH4 0x1E293C10 EQ PUSH2 0x108E JUMPI DUP3 PUSH4 0x23B872DD EQ PUSH2 0xF9A JUMPI DUP3 PUSH4 0x248A9CA3 EQ PUSH2 0xF6E JUMPI DUP3 PUSH4 0x2803212F EQ PUSH2 0xF05 JUMPI DUP3 PUSH4 0x282C51F3 EQ PUSH2 0xEC9 JUMPI DUP3 PUSH4 0x2F2FF15D EQ PUSH2 0xE9F JUMPI DUP3 PUSH4 0x313CE567 EQ PUSH2 0xE82 JUMPI DUP3 PUSH4 0x3644E515 EQ PUSH2 0xE5D JUMPI DUP3 PUSH4 0x36568ABE EQ PUSH2 0xE16 JUMPI DUP3 PUSH4 0x3E6968B6 EQ PUSH2 0xDF5 JUMPI DUP3 PUSH4 0x3F4BA83A EQ PUSH2 0xD8A JUMPI DUP3 PUSH4 0x40C10F19 EQ PUSH2 0xBE0 JUMPI DUP3 PUSH4 0x5C975ABB EQ PUSH2 0xBBB JUMPI DUP3 PUSH4 0x70A08231 EQ PUSH2 0xB83 JUMPI DUP3 PUSH4 0x7D89D05C EQ PUSH2 0xB4A JUMPI DUP3 PUSH4 0x7ECEBE00 EQ PUSH2 0xB11 JUMPI DUP3 PUSH4 0x8456CB59 EQ PUSH2 0xAB5 JUMPI DUP3 PUSH4 0x84B0196E EQ PUSH2 0x997 JUMPI DUP3 PUSH4 0x91D14854 EQ PUSH2 0x94F JUMPI DUP3 PUSH4 0x95D89B41 EQ PUSH2 0x929 JUMPI DUP3 PUSH4 0x9DC29FAC EQ PUSH2 0x740 JUMPI DUP3 PUSH4 0xA217FDDF EQ PUSH2 0x724 JUMPI DUP3 PUSH4 0xA9059CBB EQ PUSH2 0x6F2 JUMPI DUP3 PUSH4 0xABB1DC44 EQ PUSH2 0x624 JUMPI DUP3 PUSH4 0xC76B0888 EQ PUSH2 0x604 JUMPI DUP3 PUSH4 0xC87CBE56 EQ PUSH2 0x5DE JUMPI DUP3 PUSH4 0xC8C8EBE4 EQ PUSH2 0x5BE JUMPI DUP3 PUSH4 0xD01DD6D2 EQ PUSH2 0x53B JUMPI DUP3 PUSH4 0xD505ACCF EQ PUSH2 0x3D5 JUMPI POP DUP2 PUSH4 0xD5391393 EQ PUSH2 0x39A JUMPI DUP2 PUSH4 0xD547741F EQ PUSH2 0x356 JUMPI POP DUP1 PUSH4 0xD5ABEB01 EQ PUSH2 0x338 JUMPI DUP1 PUSH4 0xDBAC26E9 EQ PUSH2 0x2FB JUMPI DUP1 PUSH4 0xDD62ED3E EQ PUSH2 0x2B3 JUMPI DUP1 PUSH4 0xE63AB1E9 EQ PUSH2 0x279 JUMPI DUP1 PUSH4 0xF5EC2EED EQ PUSH2 0x238 JUMPI PUSH4 0xFDB98082 EQ PUSH2 0x1F5 JUMPI PUSH1 0x0 DUP1 REVERT JUMPDEST CALLVALUE PUSH2 0x234 JUMPI DUP1 PUSH1 0x3 NOT CALLDATASIZE ADD SLT PUSH2 0x234 JUMPI PUSH1 0x20 SWAP2 DUP2 SWAP1 PUSH1 0x1 PUSH1 0x1 PUSH1 0xA0 SHL SUB PUSH2 0x21A PUSH2 0x121E JUMP JUMPDEST AND DUP2 MSTORE PUSH1 0x10 DUP5 MSTORE DUP2 DUP2 KECCAK256 PUSH1 0x24 CALLDATALOAD DUP3 MSTORE DUP5 MSTORE KECCAK256 SLOAD SWAP1 MLOAD SWAP1 DUP2 MSTORE RETURN JUMPDEST POP DUP1 REVERT JUMPDEST POP CALLVALUE PUSH2 0x234 JUMPI DUP2 PUSH1 0x3 NOT CALLDATASIZE ADD SLT PUSH2 0x234 JUMPI DUP1 MLOAD PUSH2 0x275 SWAP2 PUSH2 0x263 DUP3 PUSH2 0x25C DUP2 PUSH2 0x1459 JUMP JUMPDEST SUB DUP4 PUSH2 0x1519 JUMP JUMPDEST MLOAD SWAP2 DUP3 SWAP2 PUSH1 0x20 DUP4 MSTORE PUSH1 0x20 DUP4 ADD SWAP1 PUSH2 0x11DE JUMP JUMPDEST SUB SWAP1 RETURN JUMPDEST POP CALLVALUE PUSH2 0x234 JUMPI DUP2 PUSH1 0x3 NOT CALLDATASIZE ADD SLT PUSH2 0x234 JUMPI PUSH1 0x20 SWAP1 MLOAD PUSH32 0x65D7A28E3265B37A6474929F336521B332C1681B933F6CB9F3376673440D862A DUP2 MSTORE RETURN JUMPDEST POP CALLVALUE PUSH2 0x234 JUMPI DUP1 PUSH1 0x3 NOT CALLDATASIZE ADD SLT PUSH2 0x234 JUMPI DUP1 PUSH1 0x20 SWAP3 PUSH2 0x2D0 PUSH2 0x121E JUMP JUMPDEST PUSH2 0x2D8 PUSH2 0x1239 JUMP JUMPDEST PUSH1 0x1 PUSH1 0x1 PUSH1 0xA0 SHL SUB SWAP2 DUP3 AND DUP4 MSTORE PUSH1 0x1 DUP7 MSTORE DUP4 DUP4 KECCAK256 SWAP2 AND DUP3 MSTORE DUP5 MSTORE KECCAK256 SLOAD SWAP1 MLOAD SWAP1 DUP2 MSTORE RETURN JUMPDEST POP CALLVALUE PUSH2 0x234 JUMPI PUSH1 0x20 CALLDATASIZE PUSH1 0x3 NOT ADD SLT PUSH2 0x234 JUMPI PUSH1 0x20 SWAP2 PUSH1 0xFF SWAP1 DUP3 SWAP1 PUSH1 0x1 PUSH1 0x1 PUSH1 0xA0 SHL SUB PUSH2 0x325 PUSH2 0x121E JUMP JUMPDEST AND DUP2 MSTORE PUSH1 0xE DUP6 MSTORE KECCAK256 SLOAD AND SWAP1 MLOAD SWAP1 ISZERO ISZERO DUP2 MSTORE RETURN JUMPDEST POP CALLVALUE PUSH2 0x234 JUMPI DUP2 PUSH1 0x3 NOT CALLDATASIZE ADD SLT PUSH2 0x234 JUMPI PUSH1 0x20 SWAP1 PUSH1 0xD SLOAD SWAP1 MLOAD SWAP1 DUP2 MSTORE RETURN JUMPDEST SWAP2 SWAP1 POP CALLVALUE PUSH2 0x396 JUMPI DUP1 PUSH1 0x3 NOT CALLDATASIZE ADD SLT PUSH2 0x396 JUMPI PUSH2 0x392 SWAP2 CALLDATALOAD PUSH2 0x38D PUSH1 0x1 PUSH2 0x37B PUSH2 0x1239 JUMP JUMPDEST SWAP4 DUP4 DUP8 MSTORE PUSH1 0x9 PUSH1 0x20 MSTORE DUP7 KECCAK256 ADD SLOAD PUSH2 0x1634 JUMP JUMPDEST PUSH2 0x195E JUMP JUMPDEST POP DUP1 RETURN JUMPDEST DUP3 DUP1 REVERT JUMPDEST POP POP CALLVALUE PUSH2 0x234 JUMPI DUP2 PUSH1 0x3 NOT CALLDATASIZE ADD SLT PUSH2 0x234 JUMPI PUSH1 0x20 SWAP1 MLOAD PUSH32 0x9F2DF0FED2C77648DE5860A4CC508CD0818C85B8B8A1AB4CEEEF8D981C8956A6 DUP2 MSTORE RETURN JUMPDEST SWAP1 DUP5 SWAP3 POP CALLVALUE PUSH2 0x396 JUMPI DUP2 PUSH1 0x3 NOT CALLDATASIZE ADD SLT PUSH2 0x396 JUMPI PUSH2 0x3F1 PUSH2 0x121E JUMP JUMPDEST PUSH2 0x3F9 PUSH2 0x1239 JUMP JUMPDEST SWAP2 PUSH1 0x44 CALLDATALOAD SWAP4 PUSH1 0x64 CALLDATALOAD PUSH1 0x84 CALLDATALOAD PUSH1 0xFF DUP2 AND DUP2 SUB PUSH2 0x537 JUMPI DUP2 TIMESTAMP GT PUSH2 0x520 JUMPI DUP9 PUSH1 0x1 DUP1 PUSH1 0xA0 SHL SUB SWAP3 DUP4 DUP8 AND SWAP5 DUP6 DUP12 MSTORE PUSH1 0x7 PUSH1 0x20 MSTORE DUP3 DUP12 KECCAK256 SWAP2 DUP3 SLOAD SWAP3 PUSH1 0x1 DUP5 ADD SWAP1 SSTORE DUP4 MLOAD SWAP3 DUP8 PUSH1 0x20 DUP6 ADD SWAP6 PUSH32 0x6E71EDAE12B1B97F4D1F60370FEF10105FA2FAAE0126114A169C64845D6126C9 DUP8 MSTORE DUP6 ADD MSTORE DUP7 DUP12 AND PUSH1 0x60 DUP6 ADD MSTORE DUP12 PUSH1 0x80 DUP6 ADD MSTORE PUSH1 0xA0 DUP5 ADD MSTORE PUSH1 0xC0 DUP4 ADD MSTORE PUSH1 0xC0 DUP3 MSTORE DUP2 ADD DUP2 DUP2 LT PUSH8 0xFFFFFFFFFFFFFFFF DUP3 GT OR PUSH2 0x50D JUMPI DUP12 MSTORE MLOAD SWAP1 KECCAK256 PUSH2 0x4DB SWAP2 PUSH2 0x4D2 SWAP2 PUSH2 0x4AC PUSH2 0x1833 JUMP JUMPDEST SWAP1 DUP13 MLOAD SWAP2 PUSH2 0x1901 PUSH1 0xF0 SHL DUP4 MSTORE PUSH1 0x2 DUP4 ADD MSTORE PUSH1 0x22 DUP3 ADD MSTORE PUSH1 0xC4 CALLDATALOAD SWAP2 PUSH1 0x42 PUSH1 0xA4 CALLDATALOAD SWAP3 KECCAK256 PUSH2 0x1C6D JUMP JUMPDEST SWAP1 SWAP3 SWAP2 SWAP3 PUSH2 0x1CFD JUMP JUMPDEST AND DUP2 DUP2 SUB PUSH2 0x4F2 JUMPI DUP7 PUSH2 0x4EF DUP8 DUP8 DUP8 PUSH2 0x19F8 JUMP JUMPDEST DUP1 RETURN JUMPDEST DUP8 MLOAD PUSH4 0x25C00723 PUSH1 0xE1 SHL DUP2 MSTORE SWAP3 DUP4 ADD MSTORE PUSH1 0x24 DUP3 ADD MSTORE PUSH1 0x44 SWAP2 POP REVERT JUMPDEST PUSH4 0x4E487B71 PUSH1 0xE0 SHL DUP12 MSTORE PUSH1 0x41 DUP8 MSTORE PUSH1 0x24 DUP12 REVERT JUMPDEST DUP9 MLOAD PUSH4 0x313C8981 PUSH1 0xE1 SHL DUP2 MSTORE DUP1 DUP6 ADD DUP4 SWAP1 MSTORE PUSH1 0x24 SWAP1 REVERT JUMPDEST DUP8 DUP1 REVERT JUMPDEST POP POP POP CALLVALUE PUSH2 0x234 JUMPI DUP1 PUSH1 0x3 NOT CALLDATASIZE ADD SLT PUSH2 0x234 JUMPI PUSH2 0x556 PUSH2 0x121E JUMP JUMPDEST PUSH1 0x24 CALLDATALOAD SWAP1 DUP2 ISZERO ISZERO DUP1 SWAP3 SUB PUSH2 0x5BA JUMPI PUSH32 0xCF3473B85DF1594D47B6958F29A32BEA0ABFF9DD68296F7BF33443646793CFD8 SWAP2 PUSH1 0x20 SWAP2 PUSH2 0x591 PUSH2 0x155E JUMP JUMPDEST PUSH1 0x1 PUSH1 0x1 PUSH1 0xA0 SHL SUB AND DUP1 DUP7 MSTORE PUSH1 0xE DUP4 MSTORE DUP5 DUP7 KECCAK256 DUP1 SLOAD PUSH1 0xFF NOT AND PUSH1 0xFF DUP5 AND OR SWAP1 SSTORE SWAP4 MLOAD SWAP1 DUP2 MSTORE LOG2 DUP1 RETURN JUMPDEST DUP4 DUP1 REVERT JUMPDEST POP POP POP CALLVALUE PUSH2 0x234 JUMPI DUP2 PUSH1 0x3 NOT CALLDATASIZE ADD SLT PUSH2 0x234 JUMPI PUSH1 0x20 SWAP1 PUSH1 0x12 SLOAD SWAP1 MLOAD SWAP1 DUP2 MSTORE RETURN JUMPDEST POP POP POP CALLVALUE PUSH2 0x234 JUMPI DUP2 PUSH1 0x3 NOT CALLDATASIZE ADD SLT PUSH2 0x234 JUMPI DUP1 MLOAD PUSH2 0x275 SWAP2 PUSH2 0x263 DUP3 PUSH2 0x25C DUP2 PUSH2 0x13CB JUMP JUMPDEST POP POP POP CALLVALUE PUSH2 0x234 JUMPI DUP2 PUSH1 0x3 NOT CALLDATASIZE ADD SLT PUSH2 0x234 JUMPI PUSH1 0x20 SWAP1 PUSH1 0x11 SLOAD SWAP1 MLOAD SWAP1 DUP2 MSTORE RETURN JUMPDEST DUP4 SWAP1 DUP6 CALLVALUE PUSH2 0x6EF JUMPI DUP1 PUSH1 0x3 NOT CALLDATASIZE ADD SLT PUSH2 0x6EF JUMPI POP DUP2 MLOAD SWAP2 PUSH2 0x64F DUP4 PUSH2 0x648 DUP2 PUSH2 0x1289 JUMP JUMPDEST SUB DUP5 PUSH2 0x1519 JUMP JUMPDEST DUP1 MLOAD SWAP1 PUSH2 0x65F DUP3 PUSH2 0x25C DUP2 PUSH2 0x133D JUMP JUMPDEST PUSH2 0x6D9 PUSH1 0x2 SLOAD SWAP3 PUSH2 0x6CB PUSH1 0xD SLOAD SWAP4 DUP1 MLOAD PUSH2 0x683 DUP2 PUSH2 0x67C DUP2 PUSH2 0x13CB JUMP JUMPDEST SUB DUP3 PUSH2 0x1519 JUMP JUMPDEST PUSH2 0x6BE DUP3 MLOAD SWAP5 PUSH2 0x69D DUP7 PUSH2 0x696 DUP2 PUSH2 0x1459 JUMP JUMPDEST SUB DUP8 PUSH2 0x1519 JUMP JUMPDEST PUSH2 0x6B0 DUP5 MLOAD SWAP12 DUP12 DUP14 SWAP13 DUP14 MSTORE DUP13 ADD SWAP1 PUSH2 0x11DE JUMP JUMPDEST SWAP1 DUP11 DUP3 SUB PUSH1 0x20 DUP13 ADD MSTORE PUSH2 0x11DE JUMP JUMPDEST SWAP2 DUP9 DUP4 SUB SWAP1 DUP10 ADD MSTORE PUSH2 0x11DE JUMP JUMPDEST SWAP1 DUP6 DUP3 SUB PUSH1 0x60 DUP8 ADD MSTORE PUSH2 0x11DE JUMP JUMPDEST SWAP2 PUSH1 0x80 DUP5 ADD MSTORE PUSH1 0xA0 DUP4 ADD MSTORE PUSH1 0x12 PUSH1 0xC0 DUP4 ADD MSTORE SUB SWAP1 RETURN JUMPDEST DUP1 REVERT JUMPDEST POP POP POP CALLVALUE PUSH2 0x234 JUMPI DUP1 PUSH1 0x3 NOT CALLDATASIZE ADD SLT PUSH2 0x234 JUMPI PUSH1 0x20 SWAP1 PUSH2 0x71D PUSH2 0x713 PUSH2 0x121E JUMP JUMPDEST PUSH1 0x24 CALLDATALOAD SWAP1 CALLER PUSH2 0x165A JUMP JUMPDEST MLOAD PUSH1 0x1 DUP2 MSTORE RETURN JUMPDEST POP POP POP CALLVALUE PUSH2 0x234 JUMPI DUP2 PUSH1 0x3 NOT CALLDATASIZE ADD SLT PUSH2 0x234 JUMPI MLOAD SWAP1 DUP2 MSTORE PUSH1 0x20 SWAP1 RETURN JUMPDEST POP SWAP1 POP CALLVALUE PUSH2 0x396 JUMPI DUP2 PUSH1 0x3 NOT CALLDATASIZE ADD SLT PUSH2 0x396 JUMPI PUSH2 0x75B PUSH2 0x121E JUMP JUMPDEST SWAP2 PUSH1 0x24 CALLDATALOAD SWAP1 PUSH32 0x3C11D16CBAFFD01DF69CE1C404F6340EE057498F5F00246190EA54220576A848 SWAP3 DUP4 DUP7 MSTORE PUSH1 0x20 SWAP4 PUSH1 0x9 DUP6 MSTORE DUP3 DUP8 KECCAK256 CALLER DUP9 MSTORE DUP6 MSTORE PUSH1 0xFF DUP4 DUP9 KECCAK256 SLOAD AND ISZERO PUSH2 0x90E JUMPI POP PUSH2 0x7A9 PUSH2 0x19D5 JUMP JUMPDEST PUSH1 0x1 PUSH1 0x1 PUSH1 0xA0 SHL SUB DUP6 AND SWAP5 DUP6 ISZERO PUSH2 0x8CC JUMPI DUP6 DUP8 MSTORE DUP7 DUP6 MSTORE DUP4 DUP4 DUP9 KECCAK256 SLOAD LT PUSH2 0x88A JUMPI PUSH2 0x7D2 PUSH2 0x1A8B JUMP JUMPDEST DUP6 DUP8 MSTORE DUP7 DUP6 MSTORE DUP3 DUP8 KECCAK256 SLOAD SWAP2 DUP5 DUP4 LT PUSH2 0x856 JUMPI POP POP SWAP1 DUP3 PUSH32 0xFD38818F5291BF0BB3A2A48AADC06BA8757865D1DABD804585338AAB3009DCB6 SWAP5 SWAP4 SWAP3 DUP7 DUP9 MSTORE DUP8 DUP6 MSTORE SUB DUP2 DUP8 KECCAK256 SSTORE DUP2 PUSH1 0x2 SLOAD SUB PUSH1 0x2 SSTORE DUP6 DUP6 PUSH32 0xDDF252AD1BE2C89B69C2B068FC378DAA952BA7F163C4A11628F55A4DF523B3EF DUP6 DUP5 MLOAD DUP7 DUP2 MSTORE LOG3 MLOAD SWAP1 DUP2 MSTORE LOG2 PUSH1 0x1 PUSH1 0xA SSTORE DUP1 RETURN JUMPDEST DUP4 MLOAD PUSH4 0x391434E3 PUSH1 0xE2 SHL DUP2 MSTORE PUSH1 0x1 PUSH1 0x1 PUSH1 0xA0 SHL SUB SWAP1 SWAP3 AND SWAP1 DUP3 ADD SWAP1 DUP2 MSTORE PUSH1 0x20 DUP2 ADD DUP4 SWAP1 MSTORE PUSH1 0x40 DUP2 ADD DUP6 SWAP1 MSTORE DUP2 SWAP1 PUSH1 0x60 ADD SUB SWAP1 REVERT JUMPDEST POP DUP4 PUSH1 0x64 SWAP3 MLOAD SWAP2 PUSH3 0x461BCD PUSH1 0xE5 SHL DUP4 MSTORE DUP3 ADD MSTORE PUSH1 0x1C PUSH1 0x24 DUP3 ADD MSTORE PUSH32 0x496E73756666696369656E742062616C616E636520746F206275726E00000000 PUSH1 0x44 DUP3 ADD MSTORE REVERT JUMPDEST POP DUP4 PUSH1 0x64 SWAP3 MLOAD SWAP2 PUSH3 0x461BCD PUSH1 0xE5 SHL DUP4 MSTORE DUP3 ADD MSTORE PUSH1 0x1D PUSH1 0x24 DUP3 ADD MSTORE PUSH32 0x43616E6E6F74206275726E2066726F6D207A65726F2061646472657373000000 PUSH1 0x44 DUP3 ADD MSTORE REVERT JUMPDEST PUSH1 0x44 SWAP3 MLOAD SWAP2 PUSH4 0xE2517D3F PUSH1 0xE0 SHL DUP4 MSTORE CALLER SWAP1 DUP4 ADD MSTORE PUSH1 0x24 DUP3 ADD MSTORE REVERT JUMPDEST POP POP POP CALLVALUE PUSH2 0x234 JUMPI DUP2 PUSH1 0x3 NOT CALLDATASIZE ADD SLT PUSH2 0x234 JUMPI DUP1 MLOAD PUSH2 0x275 SWAP2 PUSH2 0x263 DUP3 PUSH2 0x25C DUP2 PUSH2 0x133D JUMP JUMPDEST POP SWAP1 POP CALLVALUE PUSH2 0x396 JUMPI DUP2 PUSH1 0x3 NOT CALLDATASIZE ADD SLT PUSH2 0x396 JUMPI DUP2 PUSH1 0x20 SWAP4 PUSH1 0xFF SWAP3 PUSH2 0x971 PUSH2 0x1239 JUMP JUMPDEST SWAP1 CALLDATALOAD DUP3 MSTORE PUSH1 0x9 DUP7 MSTORE DUP3 DUP3 KECCAK256 PUSH1 0x1 PUSH1 0x1 PUSH1 0xA0 SHL SUB SWAP1 SWAP2 AND DUP3 MSTORE DUP6 MSTORE KECCAK256 SLOAD SWAP2 MLOAD SWAP2 AND ISZERO ISZERO DUP2 MSTORE RETURN JUMPDEST SWAP1 DUP4 DUP6 CALLVALUE PUSH2 0x6EF JUMPI DUP1 PUSH1 0x3 NOT CALLDATASIZE ADD SLT PUSH2 0x6EF JUMPI PUSH2 0x9D3 PUSH32 0x0 PUSH2 0x1AA9 JUMP JUMPDEST SWAP1 PUSH2 0x9FD PUSH32 0x0 PUSH2 0x1BAD JUMP JUMPDEST SWAP3 DUP1 MLOAD SWAP4 PUSH1 0x20 SWAP4 PUSH1 0x20 DUP7 ADD SWAP7 DUP7 DUP9 LT PUSH8 0xFFFFFFFFFFFFFFFF DUP10 GT OR PUSH2 0xAA2 JUMPI POP SWAP6 SWAP4 SWAP1 PUSH2 0xA58 DUP4 PUSH1 0x20 SWAP3 DUP8 DUP12 SWAP10 SWAP7 MSTORE DUP7 DUP7 MSTORE PUSH2 0xA4B DUP3 MLOAD SWAP11 DUP12 SWAP11 PUSH1 0xF PUSH1 0xF8 SHL DUP13 MSTORE DUP1 DUP8 DUP14 ADD MSTORE DUP12 ADD SWAP1 PUSH2 0x11DE JUMP JUMPDEST SWAP2 DUP10 DUP4 SUB SWAP1 DUP11 ADD MSTORE PUSH2 0x11DE JUMP JUMPDEST SWAP3 CHAINID PUSH1 0x60 DUP9 ADD MSTORE ADDRESS PUSH1 0x80 DUP9 ADD MSTORE DUP5 PUSH1 0xA0 DUP9 ADD MSTORE DUP7 DUP5 SUB PUSH1 0xC0 DUP9 ADD MSTORE MLOAD SWAP3 DUP4 DUP2 MSTORE ADD SWAP4 SWAP3 JUMPDEST DUP3 DUP2 LT PUSH2 0xA8B JUMPI POP POP POP POP SUB SWAP1 RETURN JUMPDEST DUP4 MLOAD DUP6 MSTORE DUP7 SWAP6 POP SWAP4 DUP2 ADD SWAP4 SWAP3 DUP2 ADD SWAP3 PUSH1 0x1 ADD PUSH2 0xA7C JUMP JUMPDEST PUSH4 0x4E487B71 PUSH1 0xE0 SHL DUP6 MSTORE PUSH1 0x41 SWAP1 MSTORE PUSH1 0x24 DUP5 REVERT JUMPDEST POP POP POP CALLVALUE PUSH2 0x234 JUMPI DUP2 PUSH1 0x3 NOT CALLDATASIZE ADD SLT PUSH2 0x234 JUMPI PUSH1 0x20 PUSH32 0x62E78CEA01BEE320CD4E420270B5EA74000D11B0C9F74754EBDBFC544B05A258 SWAP2 PUSH2 0xAF4 PUSH2 0x15D8 JUMP JUMPDEST PUSH2 0xAFC PUSH2 0x1A8B JUMP JUMPDEST PUSH1 0x1 PUSH1 0xFF NOT PUSH1 0x8 SLOAD AND OR PUSH1 0x8 SSTORE MLOAD CALLER DUP2 MSTORE LOG1 DUP1 RETURN JUMPDEST POP POP POP CALLVALUE PUSH2 0x234 JUMPI PUSH1 0x20 CALLDATASIZE PUSH1 0x3 NOT ADD SLT PUSH2 0x234 JUMPI PUSH1 0x20 SWAP2 DUP2 SWAP1 PUSH1 0x1 PUSH1 0x1 PUSH1 0xA0 SHL SUB PUSH2 0xB3A PUSH2 0x121E JUMP JUMPDEST AND DUP2 MSTORE PUSH1 0x7 DUP5 MSTORE KECCAK256 SLOAD SWAP1 MLOAD SWAP1 DUP2 MSTORE RETURN JUMPDEST POP POP POP CALLVALUE PUSH2 0x234 JUMPI PUSH1 0x20 CALLDATASIZE PUSH1 0x3 NOT ADD SLT PUSH2 0x234 JUMPI PUSH1 0x20 SWAP2 DUP2 SWAP1 PUSH1 0x1 PUSH1 0x1 PUSH1 0xA0 SHL SUB PUSH2 0xB73 PUSH2 0x121E JUMP JUMPDEST AND DUP2 MSTORE PUSH1 0xF DUP5 MSTORE KECCAK256 SLOAD SWAP1 MLOAD SWAP1 DUP2 MSTORE RETURN JUMPDEST POP POP POP CALLVALUE PUSH2 0x234 JUMPI PUSH1 0x20 CALLDATASIZE PUSH1 0x3 NOT ADD SLT PUSH2 0x234 JUMPI PUSH1 0x20 SWAP2 DUP2 SWAP1 PUSH1 0x1 PUSH1 0x1 PUSH1 0xA0 SHL SUB PUSH2 0xBAC PUSH2 0x121E JUMP JUMPDEST AND DUP2 MSTORE DUP1 DUP5 MSTORE KECCAK256 SLOAD SWAP1 MLOAD SWAP1 DUP2 MSTORE RETURN JUMPDEST POP POP POP CALLVALUE PUSH2 0x234 JUMPI DUP2 PUSH1 0x3 NOT CALLDATASIZE ADD SLT PUSH2 0x234 JUMPI PUSH1 0x20 SWAP1 PUSH1 0xFF PUSH1 0x8 SLOAD AND SWAP1 MLOAD SWAP1 ISZERO ISZERO DUP2 MSTORE RETURN JUMPDEST DUP5 DUP3 DUP6 CALLVALUE PUSH2 0x396 JUMPI DUP1 PUSH1 0x3 NOT CALLDATASIZE ADD SLT PUSH2 0x396 JUMPI PUSH2 0xBFB PUSH2 0x121E JUMP JUMPDEST SWAP1 PUSH1 0x24 CALLDATALOAD SWAP1 PUSH32 0x9F2DF0FED2C77648DE5860A4CC508CD0818C85B8B8A1AB4CEEEF8D981C8956A6 SWAP3 DUP4 DUP7 MSTORE PUSH1 0x20 SWAP4 PUSH1 0x9 DUP6 MSTORE DUP3 DUP8 KECCAK256 CALLER DUP9 MSTORE DUP6 MSTORE PUSH1 0xFF DUP4 DUP9 KECCAK256 SLOAD AND ISZERO PUSH2 0xD6C JUMPI POP PUSH2 0xC49 PUSH2 0x19D5 JUMP JUMPDEST PUSH1 0x1 PUSH1 0x1 PUSH1 0xA0 SHL SUB AND SWAP4 DUP5 ISZERO PUSH2 0xD2B JUMPI PUSH1 0x2 SLOAD SWAP1 PUSH2 0xC67 DUP5 DUP4 PUSH2 0x153B JUMP JUMPDEST PUSH1 0xD SLOAD LT PUSH2 0xCEF JUMPI POP SWAP1 PUSH2 0xCA6 DUP4 PUSH32 0x3F2C9D57C068687834F0DE942A9BABB9E5ACAB57D516D3480A3C16EE165A4273 SWAP6 SWAP5 SWAP4 PUSH2 0xCA1 PUSH2 0x1A8B JUMP JUMPDEST PUSH2 0x153B JUMP JUMPDEST PUSH1 0x2 SSTORE DUP5 DUP7 MSTORE DUP6 DUP4 MSTORE DUP1 DUP7 KECCAK256 DUP3 DUP2 SLOAD ADD SWAP1 SSTORE DUP5 DUP7 PUSH32 0xDDF252AD1BE2C89B69C2B068FC378DAA952BA7F163C4A11628F55A4DF523B3EF DUP6 DUP5 MLOAD DUP7 DUP2 MSTORE LOG3 MLOAD SWAP1 DUP2 MSTORE LOG2 PUSH1 0x1 PUSH1 0xA SSTORE DUP1 RETURN JUMPDEST DUP3 MLOAD PUSH3 0x461BCD PUSH1 0xE5 SHL DUP2 MSTORE SWAP1 DUP2 ADD DUP6 SWAP1 MSTORE PUSH1 0x16 PUSH1 0x24 DUP3 ADD MSTORE PUSH22 0x45786365656473206D6178696D756D20737570706C79 PUSH1 0x50 SHL PUSH1 0x44 DUP3 ADD MSTORE PUSH1 0x64 SWAP1 REVERT JUMPDEST DUP4 PUSH1 0x64 SWAP3 MLOAD SWAP2 PUSH3 0x461BCD PUSH1 0xE5 SHL DUP4 MSTORE DUP3 ADD MSTORE PUSH1 0x1B PUSH1 0x24 DUP3 ADD MSTORE PUSH32 0x43616E6E6F74206D696E7420746F207A65726F20616464726573730000000000 PUSH1 0x44 DUP3 ADD MSTORE REVERT JUMPDEST DUP3 MLOAD PUSH4 0xE2517D3F PUSH1 0xE0 SHL DUP2 MSTORE CALLER DUP2 DUP9 ADD MSTORE PUSH1 0x24 DUP2 ADD SWAP2 SWAP1 SWAP2 MSTORE PUSH1 0x44 SWAP1 REVERT JUMPDEST POP SWAP1 POP CALLVALUE PUSH2 0x396 JUMPI DUP3 PUSH1 0x3 NOT CALLDATASIZE ADD SLT PUSH2 0x396 JUMPI PUSH2 0xDA5 PUSH2 0x15D8 JUMP JUMPDEST PUSH1 0x8 SLOAD SWAP1 PUSH1 0xFF DUP3 AND ISZERO PUSH2 0xDE7 JUMPI POP PUSH1 0xFF NOT AND PUSH1 0x8 SSTORE MLOAD CALLER DUP2 MSTORE PUSH32 0x5DB9EE0A495BF2E6FF9C91A7834C1BA4FDD244A5E8AA4E537BD38AEAE4B073AA SWAP1 PUSH1 0x20 SWAP1 LOG1 DUP1 RETURN JUMPDEST DUP3 MLOAD PUSH4 0x8DFC202B PUSH1 0xE0 SHL DUP2 MSTORE REVERT JUMPDEST POP POP POP CALLVALUE PUSH2 0x234 JUMPI DUP2 PUSH1 0x3 NOT CALLDATASIZE ADD SLT PUSH2 0x234 JUMPI PUSH1 0x20 SWAP1 MLOAD PUSH3 0x15180 TIMESTAMP DIV DUP2 MSTORE RETURN JUMPDEST POP DUP4 DUP4 CALLVALUE PUSH2 0x234 JUMPI DUP1 PUSH1 0x3 NOT CALLDATASIZE ADD SLT PUSH2 0x234 JUMPI PUSH2 0xE31 PUSH2 0x1239 JUMP JUMPDEST SWAP1 CALLER PUSH1 0x1 PUSH1 0x1 PUSH1 0xA0 SHL SUB DUP4 AND SUB PUSH2 0xE4E JUMPI POP PUSH2 0x392 SWAP2 SWAP3 CALLDATALOAD PUSH2 0x195E JUMP JUMPDEST MLOAD PUSH4 0x334BD919 PUSH1 0xE1 SHL DUP2 MSTORE DUP4 SWAP1 REVERT JUMPDEST POP POP POP CALLVALUE PUSH2 0x234 JUMPI DUP2 PUSH1 0x3 NOT CALLDATASIZE ADD SLT PUSH2 0x234 JUMPI PUSH1 0x20 SWAP1 PUSH2 0xE7B PUSH2 0x1833 JUMP JUMPDEST SWAP1 MLOAD SWAP1 DUP2 MSTORE RETURN JUMPDEST POP POP POP CALLVALUE PUSH2 0x234 JUMPI DUP2 PUSH1 0x3 NOT CALLDATASIZE ADD SLT PUSH2 0x234 JUMPI PUSH1 0x20 SWAP1 MLOAD PUSH1 0x12 DUP2 MSTORE RETURN JUMPDEST DUP5 DUP3 DUP6 CALLVALUE PUSH2 0x396 JUMPI DUP1 PUSH1 0x3 NOT CALLDATASIZE ADD SLT PUSH2 0x396 JUMPI PUSH2 0x392 SWAP2 CALLDATALOAD PUSH2 0xEC4 PUSH1 0x1 PUSH2 0x37B PUSH2 0x1239 JUMP JUMPDEST PUSH2 0x17B3 JUMP JUMPDEST POP POP POP CALLVALUE PUSH2 0x234 JUMPI DUP2 PUSH1 0x3 NOT CALLDATASIZE ADD SLT PUSH2 0x234 JUMPI PUSH1 0x20 SWAP1 MLOAD PUSH32 0x3C11D16CBAFFD01DF69CE1C404F6340EE057498F5F00246190EA54220576A848 DUP2 MSTORE RETURN JUMPDEST POP POP POP CALLVALUE PUSH2 0x234 JUMPI DUP1 PUSH1 0x3 NOT CALLDATASIZE ADD SLT PUSH2 0x234 JUMPI PUSH32 0xD3D22FFD28B02735CF411BD7F925BD8DA01212C7028153E0D632E2953AC3088E PUSH1 0x20 PUSH2 0xF43 PUSH2 0x121E JUMP JUMPDEST PUSH1 0x24 CALLDATALOAD SWAP1 PUSH2 0xF4F PUSH2 0x155E JUMP JUMPDEST PUSH1 0x1 PUSH1 0x1 PUSH1 0xA0 SHL SUB AND DUP1 DUP7 MSTORE PUSH1 0xF DUP4 MSTORE DUP5 DUP7 KECCAK256 DUP3 SWAP1 SSTORE SWAP4 MLOAD SWAP1 DUP2 MSTORE LOG2 DUP1 RETURN JUMPDEST POP SWAP1 POP CALLVALUE PUSH2 0x396 JUMPI PUSH1 0x20 CALLDATASIZE PUSH1 0x3 NOT ADD SLT PUSH2 0x396 JUMPI DUP2 PUSH1 0x20 SWAP4 PUSH1 0x1 SWAP3 CALLDATALOAD DUP2 MSTORE PUSH1 0x9 DUP6 MSTORE KECCAK256 ADD SLOAD SWAP1 MLOAD SWAP1 DUP2 MSTORE RETURN JUMPDEST DUP4 DUP3 DUP7 CALLVALUE PUSH2 0x6EF JUMPI PUSH1 0x60 CALLDATASIZE PUSH1 0x3 NOT ADD SLT PUSH2 0x6EF JUMPI PUSH2 0xFB6 PUSH2 0x121E JUMP JUMPDEST PUSH2 0xFBE PUSH2 0x1239 JUMP JUMPDEST SWAP2 PUSH1 0x44 CALLDATALOAD SWAP4 PUSH1 0x1 DUP1 PUSH1 0xA0 SHL SUB DUP4 AND DUP1 DUP4 MSTORE PUSH1 0x1 PUSH1 0x20 MSTORE DUP7 DUP4 KECCAK256 CALLER DUP5 MSTORE PUSH1 0x20 MSTORE DUP7 DUP4 KECCAK256 SLOAD SWAP2 PUSH1 0x0 NOT DUP4 LT PUSH2 0xFFA JUMPI JUMPDEST PUSH1 0x20 DUP9 PUSH2 0x71D DUP10 DUP10 DUP10 PUSH2 0x165A JUMP JUMPDEST DUP7 DUP4 LT PUSH2 0x1062 JUMPI DUP2 ISZERO PUSH2 0x104B JUMPI CALLER ISZERO PUSH2 0x1034 JUMPI POP DUP3 MSTORE PUSH1 0x1 PUSH1 0x20 SWAP1 DUP2 MSTORE DUP7 DUP4 KECCAK256 CALLER DUP5 MSTORE DUP2 MSTORE SWAP2 DUP7 SWAP1 KECCAK256 SWAP1 DUP6 SWAP1 SUB SWAP1 SSTORE DUP3 SWAP1 PUSH2 0x71D DUP8 PUSH2 0xFEC JUMP JUMPDEST DUP8 MLOAD PUSH4 0x4A1406B1 PUSH1 0xE1 SHL DUP2 MSTORE SWAP1 DUP2 ADD DUP5 SWAP1 MSTORE PUSH1 0x24 SWAP1 REVERT JUMPDEST DUP8 MLOAD PUSH4 0xE602DF05 PUSH1 0xE0 SHL DUP2 MSTORE SWAP1 DUP2 ADD DUP5 SWAP1 MSTORE PUSH1 0x24 SWAP1 REVERT JUMPDEST DUP8 MLOAD PUSH4 0x7DC7A0D9 PUSH1 0xE1 SHL DUP2 MSTORE CALLER SWAP2 DUP2 ADD SWAP2 DUP3 MSTORE PUSH1 0x20 DUP3 ADD SWAP4 SWAP1 SWAP4 MSTORE PUSH1 0x40 DUP2 ADD DUP8 SWAP1 MSTORE DUP3 SWAP2 POP PUSH1 0x60 ADD SUB SWAP1 REVERT JUMPDEST POP SWAP1 POP CALLVALUE PUSH2 0x396 JUMPI PUSH1 0x20 CALLDATASIZE PUSH1 0x3 NOT ADD SLT PUSH2 0x396 JUMPI PUSH32 0x7C1CB3702D8E1FA6D24B12DD90670AB69C6D66D58233103D37DA8B07D6B850AC SWAP2 PUSH1 0x20 SWAP2 CALLDATALOAD SWAP1 PUSH2 0x10D1 PUSH2 0x155E JUMP JUMPDEST DUP2 PUSH1 0x12 SSTORE MLOAD SWAP1 DUP2 MSTORE LOG1 DUP1 RETURN JUMPDEST POP POP POP CALLVALUE PUSH2 0x234 JUMPI DUP2 PUSH1 0x3 NOT CALLDATASIZE ADD SLT PUSH2 0x234 JUMPI PUSH1 0x20 SWAP1 PUSH1 0x2 SLOAD SWAP1 MLOAD SWAP1 DUP2 MSTORE RETURN JUMPDEST POP POP POP CALLVALUE PUSH2 0x234 JUMPI DUP1 PUSH1 0x3 NOT CALLDATASIZE ADD SLT PUSH2 0x234 JUMPI PUSH1 0x20 SWAP1 PUSH2 0x71D PUSH2 0x111E PUSH2 0x121E JUMP JUMPDEST PUSH1 0x24 CALLDATALOAD SWAP1 CALLER PUSH2 0x19F8 JUMP JUMPDEST POP POP POP CALLVALUE PUSH2 0x234 JUMPI DUP2 PUSH1 0x3 NOT CALLDATASIZE ADD SLT PUSH2 0x234 JUMPI DUP1 MLOAD PUSH2 0x275 SWAP2 PUSH2 0x263 DUP3 PUSH2 0x25C DUP2 PUSH2 0x1289 JUMP JUMPDEST POP POP POP CALLVALUE PUSH2 0x234 JUMPI DUP2 PUSH1 0x3 NOT CALLDATASIZE ADD SLT PUSH2 0x234 JUMPI PUSH1 0x20 SWAP1 MLOAD PUSH32 0x442A94F1A1FAC79AF32856AF2A64F63648CFA2EF3B98610A5BB7CBEC4CEE6985 DUP2 MSTORE RETURN JUMPDEST DUP6 SWAP1 DUP4 CALLVALUE PUSH2 0x396 JUMPI PUSH1 0x20 CALLDATASIZE PUSH1 0x3 NOT ADD SLT PUSH2 0x396 JUMPI CALLDATALOAD PUSH4 0xFFFFFFFF PUSH1 0xE0 SHL DUP2 AND DUP1 SWAP2 SUB PUSH2 0x396 JUMPI PUSH1 0x20 SWAP3 POP PUSH4 0x7965DB0B PUSH1 0xE0 SHL DUP2 EQ SWAP1 DUP2 ISZERO PUSH2 0x11CD JUMPI JUMPDEST POP ISZERO ISZERO DUP2 MSTORE RETURN JUMPDEST PUSH4 0x1FFC9A7 PUSH1 0xE0 SHL EQ SWAP1 POP DUP4 PUSH2 0x11C6 JUMP JUMPDEST SWAP2 SWAP1 DUP3 MLOAD SWAP3 DUP4 DUP3 MSTORE PUSH1 0x0 JUMPDEST DUP5 DUP2 LT PUSH2 0x120A JUMPI POP POP DUP3 PUSH1 0x0 PUSH1 0x20 DUP1 SWAP5 SWAP6 DUP5 ADD ADD MSTORE PUSH1 0x1F DUP1 NOT SWAP2 ADD AND ADD ADD SWAP1 JUMP JUMPDEST PUSH1 0x20 DUP2 DUP4 ADD DUP2 ADD MLOAD DUP5 DUP4 ADD DUP3 ADD MSTORE ADD PUSH2 0x11E9 JUMP JUMPDEST PUSH1 0x4 CALLDATALOAD SWAP1 PUSH1 0x1 PUSH1 0x1 PUSH1 0xA0 SHL SUB DUP3 AND DUP3 SUB PUSH2 0x1234 JUMPI JUMP JUMPDEST PUSH1 0x0 DUP1 REVERT JUMPDEST PUSH1 0x24 CALLDATALOAD SWAP1 PUSH1 0x1 PUSH1 0x1 PUSH1 0xA0 SHL SUB DUP3 AND DUP3 SUB PUSH2 0x1234 JUMPI JUMP JUMPDEST SWAP1 PUSH1 0x1 DUP3 DUP2 SHR SWAP3 AND DUP1 ISZERO PUSH2 0x127F JUMPI JUMPDEST PUSH1 0x20 DUP4 LT EQ PUSH2 0x1269 JUMPI JUMP JUMPDEST PUSH4 0x4E487B71 PUSH1 0xE0 SHL PUSH1 0x0 MSTORE PUSH1 0x22 PUSH1 0x4 MSTORE PUSH1 0x24 PUSH1 0x0 REVERT JUMPDEST SWAP2 PUSH1 0x7F AND SWAP2 PUSH2 0x125E JUMP JUMPDEST PUSH1 0x3 SLOAD PUSH1 0x0 SWAP3 SWAP2 PUSH2 0x1299 DUP3 PUSH2 0x124F JUMP JUMPDEST DUP1 DUP3 MSTORE SWAP2 PUSH1 0x20 SWAP1 PUSH1 0x1 SWAP1 DUP2 DUP2 AND SWAP1 DUP2 ISZERO PUSH2 0x1318 JUMPI POP PUSH1 0x1 EQ PUSH2 0x12BC JUMPI JUMPDEST POP POP POP POP JUMP JUMPDEST SWAP3 SWAP4 SWAP5 POP PUSH1 0x3 PUSH1 0x0 MSTORE PUSH32 0xC2575A0E9E593C00F959F8C92F12DB2869C3395A3B0502D05E2516446F71F85B SWAP3 PUSH1 0x0 SWAP4 JUMPDEST DUP6 DUP6 LT PUSH2 0x1305 JUMPI POP POP POP PUSH1 0x20 SWAP3 POP ADD ADD SWAP1 CODESIZE DUP1 DUP1 DUP1 PUSH2 0x12B6 JUMP JUMPDEST DUP1 SLOAD DUP6 DUP6 ADD DUP5 ADD MSTORE SWAP4 DUP3 ADD SWAP4 DUP2 ADD PUSH2 0x12EB JUMP JUMPDEST SWAP3 POP POP POP PUSH1 0x20 SWAP4 SWAP5 POP PUSH1 0xFF SWAP3 SWAP2 SWAP3 NOT AND DUP4 DUP4 ADD MSTORE ISZERO ISZERO PUSH1 0x5 SHL ADD ADD SWAP1 CODESIZE DUP1 DUP1 DUP1 PUSH2 0x12B6 JUMP JUMPDEST PUSH1 0x4 SLOAD PUSH1 0x0 SWAP3 SWAP2 PUSH2 0x134D DUP3 PUSH2 0x124F JUMP JUMPDEST DUP1 DUP3 MSTORE SWAP2 PUSH1 0x20 SWAP1 PUSH1 0x1 SWAP1 DUP2 DUP2 AND SWAP1 DUP2 ISZERO PUSH2 0x1318 JUMPI POP PUSH1 0x1 EQ PUSH2 0x136F JUMPI POP POP POP POP JUMP JUMPDEST SWAP3 SWAP4 SWAP5 POP PUSH1 0x4 PUSH1 0x0 MSTORE PUSH32 0x8A35ACFBC15FF81A39AE7D344FD709F28E8600B4AA8C65C6B64BFE7FE36BD19B SWAP3 PUSH1 0x0 SWAP4 JUMPDEST DUP6 DUP6 LT PUSH2 0x13B8 JUMPI POP POP POP PUSH1 0x20 SWAP3 POP ADD ADD SWAP1 CODESIZE DUP1 DUP1 DUP1 PUSH2 0x12B6 JUMP JUMPDEST DUP1 SLOAD DUP6 DUP6 ADD DUP5 ADD MSTORE SWAP4 DUP3 ADD SWAP4 DUP2 ADD PUSH2 0x139E JUMP JUMPDEST PUSH1 0xB SLOAD PUSH1 0x0 SWAP3 SWAP2 PUSH2 0x13DB DUP3 PUSH2 0x124F JUMP JUMPDEST DUP1 DUP3 MSTORE SWAP2 PUSH1 0x20 SWAP1 PUSH1 0x1 SWAP1 DUP2 DUP2 AND SWAP1 DUP2 ISZERO PUSH2 0x1318 JUMPI POP PUSH1 0x1 EQ PUSH2 0x13FD JUMPI POP POP POP POP JUMP JUMPDEST SWAP3 SWAP4 SWAP5 POP PUSH1 0xB PUSH1 0x0 MSTORE PUSH32 0x175B7A638427703F0DBE7BB9BBF987A2551717B34E79F33B5B1008D1FA01DB9 SWAP3 PUSH1 0x0 SWAP4 JUMPDEST DUP6 DUP6 LT PUSH2 0x1446 JUMPI POP POP POP PUSH1 0x20 SWAP3 POP ADD ADD SWAP1 CODESIZE DUP1 DUP1 DUP1 PUSH2 0x12B6 JUMP JUMPDEST DUP1 SLOAD DUP6 DUP6 ADD DUP5 ADD MSTORE SWAP4 DUP3 ADD SWAP4 DUP2 ADD PUSH2 0x142C JUMP JUMPDEST PUSH1 0xC SLOAD PUSH1 0x0 SWAP3 SWAP2 PUSH2 0x1469 DUP3 PUSH2 0x124F JUMP JUMPDEST DUP1 DUP3 MSTORE SWAP2 PUSH1 0x20 SWAP1 PUSH1 0x1 SWAP1 DUP2 DUP2 AND SWAP1 DUP2 ISZERO PUSH2 0x1318 JUMPI POP PUSH1 0x1 EQ PUSH2 0x148B JUMPI POP POP POP POP JUMP JUMPDEST SWAP3 SWAP4 SWAP5 POP PUSH1 0xC PUSH1 0x0 MSTORE PUSH32 0xDF6966C971051C3D54EC59162606531493A51404A002842F56009D7E5CF4A8C7 SWAP3 PUSH1 0x0 SWAP4 JUMPDEST DUP6 DUP6 LT PUSH2 0x14D4 JUMPI POP POP POP PUSH1 0x20 SWAP3 POP ADD ADD SWAP1 CODESIZE DUP1 DUP1 DUP1 PUSH2 0x12B6 JUMP JUMPDEST DUP1 SLOAD DUP6 DUP6 ADD DUP5 ADD MSTORE SWAP4 DUP3 ADD SWAP4 DUP2 ADD PUSH2 0x14BA JUMP JUMPDEST PUSH1 0x40 DUP2 ADD SWAP1 DUP2 LT PUSH8 0xFFFFFFFFFFFFFFFF DUP3 GT OR PUSH2 0x1503 JUMPI PUSH1 0x40 MSTORE JUMP JUMPDEST PUSH4 0x4E487B71 PUSH1 0xE0 SHL PUSH1 0x0 MSTORE PUSH1 0x41 PUSH1 0x4 MSTORE PUSH1 0x24 PUSH1 0x0 REVERT JUMPDEST SWAP1 PUSH1 0x1F DUP1 NOT SWAP2 ADD AND DUP2 ADD SWAP1 DUP2 LT PUSH8 0xFFFFFFFFFFFFFFFF DUP3 GT OR PUSH2 0x1503 JUMPI PUSH1 0x40 MSTORE JUMP JUMPDEST SWAP2 SWAP1 DUP3 ADD DUP1 SWAP3 GT PUSH2 0x1548 JUMPI JUMP JUMPDEST PUSH4 0x4E487B71 PUSH1 0xE0 SHL PUSH1 0x0 MSTORE PUSH1 0x11 PUSH1 0x4 MSTORE PUSH1 0x24 PUSH1 0x0 REVERT JUMPDEST CALLER PUSH1 0x0 SWAP1 DUP2 MSTORE PUSH32 0x4FCB20797BC22B6BDF05ED948026FDC1B31B30D107AC0811A08B18C975BBD64B PUSH1 0x20 MSTORE PUSH1 0x40 SWAP1 KECCAK256 SLOAD PUSH32 0x442A94F1A1FAC79AF32856AF2A64F63648CFA2EF3B98610A5BB7CBEC4CEE6985 SWAP1 PUSH1 0xFF AND ISZERO PUSH2 0x15BA JUMPI POP JUMP JUMPDEST PUSH1 0x44 SWAP1 PUSH1 0x40 MLOAD SWAP1 PUSH4 0xE2517D3F PUSH1 0xE0 SHL DUP3 MSTORE CALLER PUSH1 0x4 DUP4 ADD MSTORE PUSH1 0x24 DUP3 ADD MSTORE REVERT JUMPDEST CALLER PUSH1 0x0 SWAP1 DUP2 MSTORE PUSH32 0x84574A31E2F767388BFA57BC81FF2590DF95D3022C04C363CCA3E37EE9608631 PUSH1 0x20 MSTORE PUSH1 0x40 SWAP1 KECCAK256 SLOAD PUSH32 0x65D7A28E3265B37A6474929F336521B332C1681B933F6CB9F3376673440D862A SWAP1 PUSH1 0xFF AND ISZERO PUSH2 0x15BA JUMPI POP JUMP JUMPDEST DUP1 PUSH1 0x0 MSTORE PUSH1 0x9 PUSH1 0x20 MSTORE PUSH1 0x40 PUSH1 0x0 KECCAK256 CALLER PUSH1 0x0 MSTORE PUSH1 0x20 MSTORE PUSH1 0xFF PUSH1 0x40 PUSH1 0x0 KECCAK256 SLOAD AND ISZERO PUSH2 0x15BA JUMPI POP JUMP JUMPDEST SWAP1 SWAP2 PUSH1 0x1 PUSH1 0x1 PUSH1 0xA0 SHL SUB DUP1 DUP4 AND SWAP3 SWAP1 DUP4 ISZERO PUSH2 0x179A JUMPI DUP5 AND SWAP4 DUP5 ISZERO PUSH2 0x1781 JUMPI DUP3 PUSH2 0x1683 SWAP2 DUP4 PUSH2 0x1D82 JUMP JUMPDEST ISZERO PUSH2 0x1745 JUMPI PUSH1 0x0 DUP4 DUP2 MSTORE PUSH1 0x10 PUSH1 0x20 MSTORE PUSH1 0x40 SWAP2 DUP3 DUP3 KECCAK256 PUSH3 0x15180 TIMESTAMP DIV DUP4 MSTORE PUSH1 0x20 MSTORE DUP3 DUP3 KECCAK256 PUSH2 0x16B1 DUP6 DUP3 SLOAD PUSH2 0x153B JUMP JUMPDEST SWAP1 SSTORE PUSH2 0x16BB PUSH2 0x1A8B JUMP JUMPDEST DUP5 DUP3 MSTORE DUP2 PUSH1 0x20 MSTORE DUP3 DUP3 KECCAK256 SLOAD SWAP1 DUP5 DUP3 LT PUSH2 0x1714 JUMPI POP SWAP2 DUP1 DUP3 DUP6 PUSH1 0x20 SWAP6 DUP9 PUSH32 0xDDF252AD1BE2C89B69C2B068FC378DAA952BA7F163C4A11628F55A4DF523B3EF SWAP9 SWAP7 MSTORE DUP3 DUP8 MSTORE SUB DUP3 DUP3 KECCAK256 SSTORE DUP8 DUP2 MSTORE KECCAK256 DUP3 DUP2 SLOAD ADD SWAP1 SSTORE MLOAD SWAP1 DUP2 MSTORE LOG3 JUMP JUMPDEST DUP4 MLOAD PUSH4 0x391434E3 PUSH1 0xE2 SHL DUP2 MSTORE PUSH1 0x1 PUSH1 0x1 PUSH1 0xA0 SHL SUB SWAP2 SWAP1 SWAP2 AND PUSH1 0x4 DUP3 ADD MSTORE PUSH1 0x24 DUP2 ADD SWAP2 SWAP1 SWAP2 MSTORE PUSH1 0x44 DUP2 ADD DUP5 SWAP1 MSTORE PUSH1 0x64 SWAP1 REVERT JUMPDEST PUSH1 0x40 MLOAD PUSH3 0x461BCD PUSH1 0xE5 SHL DUP2 MSTORE PUSH1 0x20 PUSH1 0x4 DUP3 ADD MSTORE PUSH1 0x14 PUSH1 0x24 DUP3 ADD MSTORE PUSH20 0x151C985B9CD9995C881B9BDD08185B1B1BDDD959 PUSH1 0x62 SHL PUSH1 0x44 DUP3 ADD MSTORE PUSH1 0x64 SWAP1 REVERT JUMPDEST PUSH1 0x40 MLOAD PUSH4 0xEC442F05 PUSH1 0xE0 SHL DUP2 MSTORE PUSH1 0x0 PUSH1 0x4 DUP3 ADD MSTORE PUSH1 0x24 SWAP1 REVERT JUMPDEST PUSH1 0x40 MLOAD PUSH4 0x4B637E8F PUSH1 0xE1 SHL DUP2 MSTORE PUSH1 0x0 PUSH1 0x4 DUP3 ADD MSTORE PUSH1 0x24 SWAP1 REVERT JUMPDEST SWAP1 PUSH1 0x0 SWAP2 DUP1 DUP4 MSTORE PUSH1 0x9 PUSH1 0x20 MSTORE PUSH1 0x40 DUP4 KECCAK256 SWAP2 PUSH1 0x1 DUP1 PUSH1 0xA0 SHL SUB AND SWAP2 DUP3 DUP5 MSTORE PUSH1 0x20 MSTORE PUSH1 0xFF PUSH1 0x40 DUP5 KECCAK256 SLOAD AND ISZERO PUSH1 0x0 EQ PUSH2 0x182E JUMPI DUP1 DUP4 MSTORE PUSH1 0x9 PUSH1 0x20 MSTORE PUSH1 0x40 DUP4 KECCAK256 DUP3 DUP5 MSTORE PUSH1 0x20 MSTORE PUSH1 0x40 DUP4 KECCAK256 PUSH1 0x1 PUSH1 0xFF NOT DUP3 SLOAD AND OR SWAP1 SSTORE PUSH32 0x2F8788117E7EFF1D82E926EC794901D17C78024A50270940304540A733656F0D CALLER SWAP4 DUP1 LOG4 PUSH1 0x1 SWAP1 JUMP JUMPDEST POP POP SWAP1 JUMP JUMPDEST ADDRESS PUSH32 0x0 PUSH1 0x1 PUSH1 0x1 PUSH1 0xA0 SHL SUB AND EQ DUP1 PUSH2 0x1935 JUMPI JUMPDEST ISZERO PUSH2 0x188E JUMPI PUSH32 0x0 SWAP1 JUMP JUMPDEST PUSH1 0x40 MLOAD PUSH1 0x20 DUP2 ADD SWAP1 PUSH32 0x8B73C3C69BB8FE3D512ECC4CF759CC79239F7B179B0FFACAA9A75D522B39400F DUP3 MSTORE PUSH32 0x0 PUSH1 0x40 DUP3 ADD MSTORE PUSH32 0x0 PUSH1 0x60 DUP3 ADD MSTORE CHAINID PUSH1 0x80 DUP3 ADD MSTORE ADDRESS PUSH1 0xA0 DUP3 ADD MSTORE PUSH1 0xA0 DUP2 MSTORE PUSH1 0xC0 DUP2 ADD DUP2 DUP2 LT PUSH8 0xFFFFFFFFFFFFFFFF DUP3 GT OR PUSH2 0x1503 JUMPI PUSH1 0x40 MSTORE MLOAD SWAP1 KECCAK256 SWAP1 JUMP JUMPDEST POP PUSH32 0x0 CHAINID EQ PUSH2 0x1865 JUMP JUMPDEST SWAP1 PUSH1 0x0 SWAP2 DUP1 DUP4 MSTORE PUSH1 0x9 PUSH1 0x20 MSTORE PUSH1 0x40 DUP4 KECCAK256 SWAP2 PUSH1 0x1 DUP1 PUSH1 0xA0 SHL SUB AND SWAP2 DUP3 DUP5 MSTORE PUSH1 0x20 MSTORE PUSH1 0xFF PUSH1 0x40 DUP5 KECCAK256 SLOAD AND PUSH1 0x0 EQ PUSH2 0x182E JUMPI DUP1 DUP4 MSTORE PUSH1 0x9 PUSH1 0x20 MSTORE PUSH1 0x40 DUP4 KECCAK256 DUP3 DUP5 MSTORE PUSH1 0x20 MSTORE PUSH1 0x40 DUP4 KECCAK256 PUSH1 0xFF NOT DUP2 SLOAD AND SWAP1 SSTORE PUSH32 0xF6391F5C32D9C69D2A47EA670B442974B53935D1EDC7FD64EB21E047A839171B CALLER SWAP4 DUP1 LOG4 PUSH1 0x1 SWAP1 JUMP JUMPDEST PUSH1 0x2 PUSH1 0xA SLOAD EQ PUSH2 0x19E6 JUMPI PUSH1 0x2 PUSH1 0xA SSTORE JUMP JUMPDEST PUSH1 0x40 MLOAD PUSH4 0x3EE5AEB5 PUSH1 0xE0 SHL DUP2 MSTORE PUSH1 0x4 SWAP1 REVERT JUMPDEST PUSH1 0x1 PUSH1 0x1 PUSH1 0xA0 SHL SUB SWAP1 DUP2 AND SWAP2 DUP3 ISZERO PUSH2 0x1A72 JUMPI AND SWAP2 DUP3 ISZERO PUSH2 0x1A59 JUMPI PUSH1 0x20 PUSH32 0x8C5BE1E5EBEC7D5BD14F71427D1E84F3DD0314C0F7B2291E5B200AC8C7C3B925 SWAP2 DUP4 PUSH1 0x0 MSTORE PUSH1 0x1 DUP3 MSTORE PUSH1 0x40 PUSH1 0x0 KECCAK256 DUP6 PUSH1 0x0 MSTORE DUP3 MSTORE DUP1 PUSH1 0x40 PUSH1 0x0 KECCAK256 SSTORE PUSH1 0x40 MLOAD SWAP1 DUP2 MSTORE LOG3 JUMP JUMPDEST PUSH1 0x40 MLOAD PUSH4 0x4A1406B1 PUSH1 0xE1 SHL DUP2 MSTORE PUSH1 0x0 PUSH1 0x4 DUP3 ADD MSTORE PUSH1 0x24 SWAP1 REVERT JUMPDEST PUSH1 0x40 MLOAD PUSH4 0xE602DF05 PUSH1 0xE0 SHL DUP2 MSTORE PUSH1 0x0 PUSH1 0x4 DUP3 ADD MSTORE PUSH1 0x24 SWAP1 REVERT JUMPDEST PUSH1 0xFF PUSH1 0x8 SLOAD AND PUSH2 0x1A97 JUMPI JUMP JUMPDEST PUSH1 0x40 MLOAD PUSH4 0xD93C0665 PUSH1 0xE0 SHL DUP2 MSTORE PUSH1 0x4 SWAP1 REVERT JUMPDEST PUSH1 0xFF DUP2 EQ PUSH2 0x1AE7 JUMPI PUSH1 0xFF DUP2 AND SWAP1 PUSH1 0x1F DUP3 GT PUSH2 0x1AD5 JUMPI PUSH1 0x40 MLOAD SWAP2 PUSH2 0x1ACB DUP4 PUSH2 0x14E7 JUMP JUMPDEST DUP3 MSTORE PUSH1 0x20 DUP3 ADD MSTORE SWAP1 JUMP JUMPDEST PUSH1 0x40 MLOAD PUSH4 0x2CD44AC3 PUSH1 0xE2 SHL DUP2 MSTORE PUSH1 0x4 SWAP1 REVERT JUMPDEST POP PUSH1 0x40 MLOAD PUSH1 0x5 SLOAD DUP2 PUSH1 0x0 PUSH2 0x1AFA DUP4 PUSH2 0x124F JUMP JUMPDEST DUP1 DUP4 MSTORE SWAP3 PUSH1 0x20 SWAP1 PUSH1 0x1 SWAP1 DUP2 DUP2 AND SWAP1 DUP2 ISZERO PUSH2 0x1B89 JUMPI POP PUSH1 0x1 EQ PUSH2 0x1B28 JUMPI JUMPDEST POP POP PUSH2 0x1B25 SWAP3 POP SUB DUP3 PUSH2 0x1519 JUMP JUMPDEST SWAP1 JUMP JUMPDEST SWAP2 POP SWAP3 PUSH1 0x5 PUSH1 0x0 MSTORE PUSH32 0x36B6384B5ECA791C62761152D0C79BB0604C104A5FB6F4EB0703F3154BB3DB0 SWAP4 PUSH1 0x0 SWAP3 JUMPDEST DUP3 DUP5 LT PUSH2 0x1B71 JUMPI POP PUSH2 0x1B25 SWAP5 POP POP POP DUP2 ADD PUSH1 0x20 ADD CODESIZE DUP1 PUSH2 0x1B17 JUMP JUMPDEST DUP6 SLOAD DUP8 DUP6 ADD DUP4 ADD MSTORE SWAP5 DUP6 ADD SWAP5 DUP7 SWAP5 POP SWAP3 DUP2 ADD SWAP3 PUSH2 0x1B56 JUMP JUMPDEST SWAP2 POP POP PUSH1 0x20 SWAP3 POP PUSH2 0x1B25 SWAP5 SWAP2 POP PUSH1 0xFF NOT AND DUP3 DUP5 ADD MSTORE ISZERO ISZERO PUSH1 0x5 SHL DUP3 ADD ADD CODESIZE DUP1 PUSH2 0x1B17 JUMP JUMPDEST PUSH1 0xFF DUP2 EQ PUSH2 0x1BCF JUMPI PUSH1 0xFF DUP2 AND SWAP1 PUSH1 0x1F DUP3 GT PUSH2 0x1AD5 JUMPI PUSH1 0x40 MLOAD SWAP2 PUSH2 0x1ACB DUP4 PUSH2 0x14E7 JUMP JUMPDEST POP PUSH1 0x40 MLOAD PUSH1 0x6 SLOAD DUP2 PUSH1 0x0 PUSH2 0x1BE2 DUP4 PUSH2 0x124F JUMP JUMPDEST DUP1 DUP4 MSTORE SWAP3 PUSH1 0x20 SWAP1 PUSH1 0x1 SWAP1 DUP2 DUP2 AND SWAP1 DUP2 ISZERO PUSH2 0x1B89 JUMPI POP PUSH1 0x1 EQ PUSH2 0x1C0C JUMPI POP POP PUSH2 0x1B25 SWAP3 POP SUB DUP3 PUSH2 0x1519 JUMP JUMPDEST SWAP2 POP SWAP3 PUSH1 0x6 PUSH1 0x0 MSTORE PUSH32 0xF652222313E28459528D920B65115C16C04F3EFC82AAEDC97BE59F3F377C0D3F SWAP4 PUSH1 0x0 SWAP3 JUMPDEST DUP3 DUP5 LT PUSH2 0x1C55 JUMPI POP PUSH2 0x1B25 SWAP5 POP POP POP DUP2 ADD PUSH1 0x20 ADD CODESIZE DUP1 PUSH2 0x1B17 JUMP JUMPDEST DUP6 SLOAD DUP8 DUP6 ADD DUP4 ADD MSTORE SWAP5 DUP6 ADD SWAP5 DUP7 SWAP5 POP SWAP3 DUP2 ADD SWAP3 PUSH2 0x1C3A JUMP JUMPDEST SWAP2 SWAP1 PUSH32 0x7FFFFFFFFFFFFFFFFFFFFFFFFFFFFFFF5D576E7357A4501DDFE92F46681B20A0 DUP5 GT PUSH2 0x1CF1 JUMPI SWAP3 PUSH1 0x20 SWAP3 SWAP2 PUSH1 0xFF PUSH1 0x80 SWAP6 PUSH1 0x40 MLOAD SWAP5 DUP6 MSTORE AND DUP5 DUP5 ADD MSTORE PUSH1 0x40 DUP4 ADD MSTORE PUSH1 0x60 DUP3 ADD MSTORE PUSH1 0x0 SWAP3 DUP4 SWAP2 DUP3 DUP1 MSTORE PUSH1 0x1 GAS STATICCALL ISZERO PUSH2 0x1CE5 JUMPI DUP1 MLOAD PUSH1 0x1 PUSH1 0x1 PUSH1 0xA0 SHL SUB DUP2 AND ISZERO PUSH2 0x1CDC JUMPI SWAP2 DUP2 SWAP1 JUMP JUMPDEST POP DUP1 SWAP2 PUSH1 0x1 SWAP2 SWAP1 JUMP JUMPDEST PUSH1 0x40 MLOAD SWAP1 RETURNDATASIZE SWAP1 DUP3 RETURNDATACOPY RETURNDATASIZE SWAP1 REVERT JUMPDEST POP POP POP PUSH1 0x0 SWAP2 PUSH1 0x3 SWAP2 SWAP1 JUMP JUMPDEST PUSH1 0x4 DUP2 LT ISZERO PUSH2 0x1D6C JUMPI DUP1 PUSH2 0x1D0F JUMPI POP POP JUMP JUMPDEST PUSH1 0x1 DUP2 SUB PUSH2 0x1D29 JUMPI PUSH1 0x40 MLOAD PUSH4 0xF645EEDF PUSH1 0xE0 SHL DUP2 MSTORE PUSH1 0x4 SWAP1 REVERT JUMPDEST PUSH1 0x2 DUP2 SUB PUSH2 0x1D4A JUMPI PUSH1 0x40 MLOAD PUSH4 0xFCE698F7 PUSH1 0xE0 SHL DUP2 MSTORE PUSH1 0x4 DUP2 ADD DUP4 SWAP1 MSTORE PUSH1 0x24 SWAP1 REVERT JUMPDEST PUSH1 0x3 EQ PUSH2 0x1D54 JUMPI POP JUMP JUMPDEST PUSH1 0x24 SWAP1 PUSH1 0x40 MLOAD SWAP1 PUSH4 0x35E2F383 PUSH1 0xE2 SHL DUP3 MSTORE PUSH1 0x4 DUP3 ADD MSTORE REVERT JUMPDEST PUSH4 0x4E487B71 PUSH1 0xE0 SHL PUSH1 0x0 MSTORE PUSH1 0x21 PUSH1 0x4 MSTORE PUSH1 0x24 PUSH1 0x0 REVERT JUMPDEST SWAP2 SWAP1 PUSH1 0x1 DUP1 PUSH1 0xA0 SHL SUB DUP1 SWAP4 AND SWAP1 PUSH1 0x0 SWAP4 DUP3 DUP6 MSTORE PUSH1 0xE PUSH1 0x20 MSTORE PUSH1 0xFF PUSH1 0x40 DUP7 KECCAK256 SLOAD AND SWAP2 DUP3 ISZERO PUSH2 0x1E07 JUMPI JUMPDEST POP POP PUSH2 0x182E JUMPI PUSH1 0x12 SLOAD DUP3 GT PUSH2 0x182E JUMPI DUP3 MSTORE PUSH1 0xF PUSH1 0x20 MSTORE PUSH1 0x40 DUP3 KECCAK256 SLOAD DUP1 ISZERO PUSH2 0x1DFA JUMPI PUSH2 0x1DEF SWAP1 SWAP2 JUMPDEST PUSH1 0x10 PUSH1 0x20 MSTORE PUSH1 0x40 DUP5 KECCAK256 PUSH3 0x15180 TIMESTAMP DIV DUP6 MSTORE PUSH1 0x20 MSTORE PUSH1 0x40 DUP5 KECCAK256 SLOAD PUSH2 0x153B JUMP JUMPDEST GT PUSH2 0x1B25 JUMPI POP PUSH1 0x1 SWAP1 JUMP JUMPDEST POP PUSH2 0x1DEF PUSH1 0x11 SLOAD SWAP2 PUSH2 0x1DD1 JUMP JUMPDEST AND DUP5 MSTORE POP PUSH1 0x40 DUP4 KECCAK256 SLOAD PUSH1 0xFF AND CODESIZE DUP1 PUSH2 0x1DAA JUMP INVALID LOG2 PUSH5 0x6970667358 0x22 SLT KECCAK256 KECCAK256 0xD7 CALL PUSH8 0x71B70444D4041C0B PUSH8 0x23667F1452CA7001 DUP6 SWAP5 0xB4 MULMOD 0xA9 SWAP2 NOT 0xAD SWAP2 0xF8 SLOAD PUSH5 0x736F6C6343 STOP ADDMOD XOR STOP CALLER 0x2F DUP8 DUP9 GT PUSH31 0x7EFF1D82E926EC794901D17C78024A50270940304540A733656F0D00000000 "},"methodIdentifiers":{"BURNER_ROLE()":"282c51f3","COMPLIANCE_ROLE()":"062d3bd7","DEFAULT_ADMIN_ROLE()":"a217fddf","DOMAIN_SEPARATOR()":"3644e515","MINTER_ROLE()":"d5391393","PAUSER_ROLE()":"e63ab1e9","allowance(address,address)":"dd62ed3e","approve(address,uint256)":"095ea7b3","balanceOf(address)":"70a08231","blacklisted(address)":"dbac26e9","burn(address,uint256)":"9dc29fac","companyName()":"f5ec2eed","dailyTransferAmounts(address,uint256)":"fdb98082","dailyTransferLimits(address)":"7d89d05c","decimals()":"313ce567","defaultDailyLimit()":"c76b0888","eip712Domain()":"84b0196e","getCurrentDay()":"3e6968b6","getRoleAdmin(bytes32)":"248a9ca3","getTokenInfo()":"abb1dc44","grantRole(bytes32,address)":"2f2ff15d","hasRole(bytes32,address)":"91d14854","maxSupply()":"d5abeb01","maxTransactionAmount()":"c8c8ebe4","mint(address,uint256)":"40c10f19","name()":"06fdde03","nonces(address)":"7ecebe00","pause()":"8456cb59","paused()":"5c975abb","permit(address,address,uint256,uint256,uint8,bytes32,bytes32)":"d505accf","renounceRole(bytes32,address)":"36568abe","revokeRole(bytes32,address)":"d547741f","setBlacklisted(address,bool)":"d01dd6d2","setDailyLimit(address,uint256)":"2803212f","setMaxTransactionAmount(uint256)":"1e293c10","stockSymbol()":"c87cbe56","supportsInterface(bytes4)":"01ffc9a7","symbol()":"95d89b41","totalSupply()":"18160ddd","transfer(address,uint256)":"a9059cbb","transferFrom(address,address,uint256)":"23b872dd","unpause()":"3f4ba83a"}}}}}